:020000040800F2
:10000000000002201D080008A5070008A707000837
:10001000A9070008AB070008AD07000800000000B2
:10002000000000000000000000000000511B00085C
:10003000AF07000800000000F11B0008551C000875
:100040006D0800086D0800086D0800086D080008BC
:100050006D0800086D0800086D0800086D080008AC
:100060006D0800086D0800086D0800086D0800089C
:100070006D0800086D0800086D0800086D0800088C
:100080006D0800086D0800086D0800086D0800087C
:100090006D0800086D0800086D0800086D0800086C
:1000A0006D0800086D0800086D0800086D0800085C
:1000B000B10700086D0800086D0800086D08000809
:1000C0006D0800086D0800086D0800086D0800083C
:1000D0006D0800086D0800086D0800086D0800082C
:1000E0006D0800086D0800086D0800086D0800081C
:1000F0006D0800086D0800086D0800086D0800080C
:100100006D0800086D0800086D0800086D080008FB
:100110006D0800086D0800086D0800086D080008EB
:100120006D0800086D0800086D0800086D080008DB
:100130006D0800086D0800086D0800086D080008CB
:100140006D0800086D0800086D0800086D080008BB
:100150006D0800086D0800086D0800086D080008AB
:100160006D0800086D0800086D0800086D0800089B
:100170006D0800086D0800086D0800086D0800088B
:100180006D0800086D0800086D0800086D0800087B
:100190006D080008000000006D0800086D080008E8
:1001A0006D0800086D0800086D0800086D0800085B
:1001B0006D0800086D0800086D0800086D0800084B
:1001C0006D0800086D0800086D0800086D0800083B
:0801D0006D0800086D0800082D
:1001E000844641EA000313F003036DD1403A41D342
:1001F00051F8043B40F8043B51F8043B40F8043B01
:1002000051F8043B40F8043B51F8043B40F8043BF0
:1002100051F8043B40F8043B51F8043B40F8043BE0
:1002200051F8043B40F8043B51F8043B40F8043BD0
:1002300051F8043B40F8043B51F8043B40F8043BC0
:1002400051F8043B40F8043B51F8043B40F8043BB0
:1002500051F8043B40F8043B51F8043B40F8043BA0
:1002600051F8043B40F8043B51F8043B40F8043B90
:10027000403ABDD2303211D351F8043B40F8043B30
:1002800051F8043B40F8043B51F8043B40F8043B70
:1002900051F8043B40F8043B103AEDD20C3205D340
:1002A00051F8043B40F8043B043AF9D2043208D038
:1002B000D2071CBF11F8013B00F8013B01D30B88AA
:1002C00003806046704700BF082A13D38B078DD088
:1002D00010F003038AD0C3F10403D21ADB071CBF5A
:1002E00011F8013B00F8013B80D331F8023B20F8C4
:1002F000023B7BE7043AD9D3013A11F8013B00F8FD
:10030000013BF9D20B7803704B7843708B78837084
:10031000604670470348044B834202D0034B03B14D
:1003200018477047500500205005002000000000CD
:100330000548064B1B1AD90F01EBA301491002D047
:10034000034B03B1184770475005002050050020AB
:100350000000000010B5064C237843B9FFF7DAFF20
:10036000044B13B10448AFF300800123237010BD88
:1003700050050020000000006035000808B5054B5E
:100380001BB105490548AFF30080BDE80840FFF701
:10039000CFBF00BF000000005405002060350008FA
:1003A00070B588B0002403940494059406940794CF
:1003B000174BDA6C42F01002DA64DA6C02F01002C9
:1003C0000192019ADA6C42F00202DA64DB6C03F00B
:1003D00002030293029B0F4E2246FF21304600F09B
:1003E000D4FBFF230393012504950594032306936F
:1003F00003A9304600F0D8FA4FF4E0430393049485
:10040000059503A9044800F0CFFA08B070BD00BFFD
:100410000010024000100048000400482DE9F0419F
:1004200084B064274FF000082FE0029B33B3012B08
:100430000BD0022B04D0032B30D11937BFB22DE0E3
:10044000192FF8D9193FBFB228E04FF0010825E075
:10045000012202FA04F5ADB2134E2946304600F0EF
:1004600094FB384600F024FA00222946304600F07A
:100470008CFB0134E4B2072CEAD906E04FF0000807
:100480000022FF21084800F080FB0A22074B196870
:1004900001A801F07BFA019B102BC6D0B8F1000F28
:1004A000EED00024E7E700BF001000486C050020F4
:1004B00010B5002401E0012C1CD04FF480511148EC
:1004C00000F05CFB0028F8D14FF480510D4800F09B
:1004D00055FB0028F8D0013404F001031C4648BF46
:1004E0005C42002BE7D10A220021074B186801F07B
:1004F0001AFAE2E70A220121034B186801F013FA05
:10050000DBE700BF000400486C05002008B54FF48D
:100510000051094800F032FB0028F8D14FF4005197
:10052000054800F02BFB0028F8D00A220221034BDB
:10053000186801F0F8F9EAE7000400486C050020AB
:1005400008B54FF48041094800F018FB0028F8D1A5
:100550004FF48041054800F011FB0028F8D00A2232
:100560000321034B186801F0DEF9EAE700040048B4
:100570006C05002008B50368B3F1804F00D008BDBA
:1005800000F084F9FBE772B6FEE700B595B03822BB
:10059000002106A802F04AFD00200190029003907D
:1005A0000490059000F0F6FA022306934FF480724F
:1005B000099240220A920D930E9304220F92552223
:1005C000109211931293139306A800F09DFB80B92B
:1005D0000F230193032302930023039304930593B2
:1005E00004210DEB010000F045FE20B915B05DF8C7
:1005F00004FBFFF7C8FFFFF7C6FF000000B597B088
:1006000000F035F9FFF7C1FFFFF7CAFE2A4C14AB23
:1006100094E8030083E803000021184601F07CF908
:10062000264B18600DF13C0C04F1080EBEE80F00DB
:10063000ACE80F00DEF80030CCF8003000210FA845
:1006400001F050F91E4B18600DF1280C04F11C0E3E
:10065000BEE80F00ACE80F00DEF80030CCF8003048
:1006600000210AA801F03EF9164B18600DF1140C98
:1006700004F1300EBEE80F00ACE80F00DEF80030E9
:10068000CCF80030002105A801F02CF90E4B1860C1
:10069000EE4604F1440CBCE80F00AEE80F00DCF8B5
:1006A0000030CEF800300021684601F01BF9074BFE
:1006B000186001F012F9FEE7783500086C0500209B
:1006C0007C050020780500207405002070050020BE
:1006D00000B583B00E4B1A6E42F001021A661A6E14
:1006E00002F001020092009A9A6D42F080529A65DF
:1006F0009B6D03F080530193019B00220F216FF04B
:10070000010000F03DF900F0CBFA03B05DF804FB06
:100710000010024030B589B004461E4B9A6D42F07D
:1007200001029A659B6D03F001030193019B02A9ED
:1007300003A800F0B3FE00F09FFE174AA2FB0023BF
:100740009B0C013B15484FF08042026040F2E732BB
:10075000C260436000230361836001F07BF80546BB
:1007600010B1284609B030BD0C4800F0B7FE054670
:100770000028F6D11C2000F013F90F2C01D9012517
:10078000EFE7002221461C2000F0FAF8044B1C6021
:10079000E7E700BF0010024083DE1B438005002016
:1007A00008000020FEE7FEE7FEE7FEE7FEE77047F1
:1007B00008B5024800F0E0FE08BD00BF800500203B
:1007C00010B503460C4A0D490D48006840B10C486D
:1007D00000680344521A934206D8094A136010BDB8
:1007E0000748084C0460F2E702F0A0FC0C23036009
:1007F0004FF0FF30F3E700BF0000022000040000CC
:10080000CC050020301A0020034AD2F8883043F487
:100810007003C2F88830704700ED00E00D4885464F
:10082000FFF7F2FF0C480D490D4A002302E0D458AF
:10083000C4500433C4188C42F9D30A4A0A4C00232A
:1008400001E013600432A242FBD302F075FCFFF713
:10085000D5FEFEE700000220000000205005002029
:1008600034360008500500202C1A0020FEE710B591
:10087000032000F073F80F20FFF74CFF10B10124A4
:10088000204610BD0446FFF723FFF9E7034A13682B
:10089000034909680B441360704700BFD00500206E
:1008A00004000020014B1868704700BFD0050020ED
:1008B00038B50446FFF7F6FF0546B4F1FF3F02D016
:1008C000044B1B681C44FFF7EDFF401BA042FAD30A
:1008D00038BD00BF04000020002807DB00F01F0225
:1008E000400901239340024A42F82030704700BF7C
:1008F00000E100E0002808DB0901C9B200F1604016
:1009000000F5614080F80013704700F00F00090106
:10091000C9B2014B1954704714ED00E000B500F066
:100920000700C0F1070CBCF1040F28BF4FF0040C06
:10093000031D062B0FD9C31E4FF0FF3E0EFA0CF01D
:1009400021EA000199400EFA03FE22EA0E0241EA72
:1009500002005DF804FB0023EEE70000074AD368BD
:1009600023F4E0631B041B0C000200F4E06003436B
:1009700043F0BF6343F40033D360704700ED00E001
:1009800010B50446054BD868C0F30220FFF7C6FF38
:1009900001462046FFF7AEFF10BD00BF00ED00E0AE
:1009A00008B5FFF799FF08BDF0B583B0002362E0FA
:1009B00085685E000324B44025EA0405CC68B44091
:1009C0002C438460456825EA0C054C68C4F3001488
:1009D0009C402C4344605FE0DD08083550F825401A
:1009E00003F0070C4FEA8C0C4FF00F0E0EFA0CFEC2
:1009F00024EA0E0E0C6904FA0CF444EA0E0440F8E2
:100A0000254060E0052400E0002404FA0EF42C43A5
:100A10000CF1020C554D45F82C40554CA568D443BB
:100A200025EA02064F6817F4801F01D042EA050646
:100A30004F4DAE60ED6804EA05064F6817F4001FDD
:100A400001D042EA05064A4DEE606D6804EA0506EB
:100A50004F6817F4003F01D042EA0506444D6E602E
:100A60002D682C404E6816F4803F01D042EA050400
:100A70003F4A146001330A6832FA03F474D04FF02D
:100A8000010C0CFA03FC1CEA0202F3D04C6804F0DF
:100A90000304013C012C8BD94C6804F00304032CA3
:100AA0000CD0C4685D004FF0030C0CFA05FC24EA7E
:100AB0000C0C8C68AC4044EA0C04C4604C6804F034
:100AC0000304022C88D004684FEA430E4FF0030C55
:100AD0000CFA0EFC24EA0C0C4C6804F0030404FA33
:100AE0000EF444EA0C0404604C6814F4403FC1D096
:100AF000204C256E45F001052566246E04F00104A6
:100B00000194019C4FEA930C0CF10205174C54F828
:100B1000255003F0030E4FEA8E0E0F2404FA0EF454
:100B200025EA0405B0F1904F3FF46EAF124CA0429D
:100B300012D004F58064A04210D004F58064A04275
:100B40000ED004F58064A0420CD004F58064A0426D
:100B50003FF458AF062458E7012456E7022454E72F
:100B6000032452E7042450E703B0F0BD0000014025
:100B700000040140001002400004004803691942CB
:100B800001D001207047002070470AB18161704791
:100B900081627047002836D13E4B1B6803F4C06366
:100BA000B3F5806F08D03B4AD2F8803023F48073CD
:100BB000C2F8803000207047364AD2F8803023F4E3
:100BC0008073C2F88030136823F4C06343F4007369
:100BD0001360314B1B68322202FB03F32F4AA2FB46
:100BE00003239B0C013300E0013B2A4A526912F4B3
:100BF000806F01D0002BF7D1264B5B6913F4806F17
:100C000044D100207047B0F5007F08D0214A136816
:100C100023F4C06343F480631360002070471D4BCE
:100C20001B6803F4C063B3F5806F08D0194AD2F88B
:100C3000803043F48073C2F8803000207047154A3A
:100C4000D2F8803043F48073C2F88030136823F404
:100C5000C06343F4007313600F4B1B68322202FB26
:100C600003F30E4AA2FB03239B0C013300E0013B7C
:100C7000084A526912F4806F01D0002BF7D1054B5E
:100C80005B6913F4806F03D1002070470320704725
:100C900003207047007000400000002083DE1B43EB
:100CA000024A936843F480439360704700700040A9
:100CB000124BDA6802F00302DB68C3F3031301335B
:100CC000032A11D00E48B0FBF3F00C4BDB68C3F3E2
:100CD000062303FB00F0094BDB68C3F341630133D8
:100CE0005B00B0FBF3F070470648B0FBF3F0034B3A
:100CF000DB68C3F3062303FB00F0ECE700100240BF
:100D00000024F40000127A00002800F04F8270B531
:100D100082B00446036813F0010F37D0A44A9368E9
:100D200003F00C03D26802F003020C2B23D0082B33
:100D300023D06368B3F5803F4ED0B3F5A02F51D0D8
:100D40009B4B1A6822F480321A601A6822F48022BF
:100D50001A606368002B52D0FFF7A4FD0546944B40
:100D60001B6813F4003F11D1FFF79CFD401B642862
:100D7000F5D9032023E2032AD9D18D4B1B6813F444
:100D8000003F03D06368002B00F01282236813F049
:100D9000020F5DD0864A936803F00C03D26802F01C
:100DA00003020C2B3AD0042B3AD0E368002B75D009
:100DB0007F4A136843F480731360FFF773FD0546A1
:100DC0007B4B1B6813F4806F5FD1FFF76BFD401BFB
:100DD0000228F5D90320F2E1754A136843F4803301
:100DE0001360B6E703F18043A3F53C331A6842F47D
:100DF00080221A601A6842F480321A60A9E7FFF76D
:100E000051FD05466A4B1B6813F4003FBED0FFF747
:100E100049FD401B6428F5D90320D0E1022AC2D144
:100E2000634B1B6813F4806F03D0E368002B00F062
:100E3000C1815F4A536823F0FE43216943EA01639D
:100E400053605C4B1868FFF765FC002840F0B481E4
:100E5000236813F0080F4CD063699BB3544AD2F84F
:100E6000943043F00103C2F89430FFF71BFD0546B0
:100E70004F4BD3F8943013F0020F3AD1FFF712FD25
:100E8000401B0228F4D9032099E1494A536823F012
:100E9000FE43216943EA01635360D9E7444A13687A
:100EA00023F480731360FFF7FDFC0546404B1B687D
:100EB00013F4806FCCD0FFF7F5FC401B0228F5D966
:100EC00003207CE13A4AD2F8943023F00103C2F8BF
:100ED0009430FFF7E7FC0546354BD3F8943013F018
:100EE000020F06D0FFF7DEFC401B0228F4D90320D6
:100EF00065E1236813F0040F00F081802C4B9B6D9B
:100F000013F0805F36D12A4B9A6D42F080529A6579
:100F10009B6D03F080530193019B0125264B1B68B9
:100F200013F4807F28D0A368012B39D0052B45D03E
:100F30001F4BD3F8902022F00102C3F89020D3F881
:100F4000902022F00402C3F89020A368002B43D025
:100F5000FFF7A8FC0646164BD3F8903013F0020FAB
:100F60004CD1FFF79FFC801B41F288339842F2D9A5
:100F7000032024E10025D1E70F4A136843F480736E
:100F80001360FFF78FFC06460B4B1B6813F4807F42
:100F9000C9D1FFF787FC801B0228F5D903200EE199
:100FA000034AD2F8903043F00103C2F89030CCE706
:100FB000001002400800002000700040884BD3F869
:100FC000902042F00402C3F89020D3F8902042F021
:100FD0000102C3F89020B8E7FFF764FC0646804B97
:100FE000D3F8903013F0020F08D0FFF75BFC801BA2
:100FF00041F288339842F2D90320E0E0E5B9236852
:1010000013F0200F35D0A369E3B1754AD2F89830B8
:1010100043F00103C2F89830FFF744FC0546704BDB
:10102000D3F8983013F0020F23D1FFF73BFC401B9D
:101030000228F4D90320C2E0694A936D23F080535B
:101040009365DCE7664AD2F8983023F00103C2F8D2
:101050009830FFF727FC0546614BD3F8983013F022
:10106000020F06D0FFF71EFC401B0228F4D9032014
:10107000A5E0E369002B00F0A180594A926802F0D4
:101080000C020C2A64D0022B13D0554A136823F0AB
:1010900080731360FFF706FC0446514B1B6813F086
:1010A000007F4ED0FFF7FEFB001B0228F5D903207E
:1010B00085E04B4A136823F080731360FFF7F2FB5F
:1010C0000546474B1B6813F0007F06D0FFF7EAFB8D
:1010D000401B0228F5D9032071E0414AD3684149F9
:1010E0001940236A606A013843EA0013A06A43EAA0
:1010F0000023206B4008013843EA4053606B4008EE
:10110000013843EA4063E06A43EAC0631943D160AF
:10111000136843F080731360D36843F08073D36027
:10112000FFF7C0FB04462E4B1B6813F0007F06D16F
:10113000FFF7B8FB001B0228F5D903203FE0002091
:101140003DE0274AD168284B0B40D360002036E0B1
:10115000012B36D0224BDB6803F00301226A914257
:1011600031D103F0F002616A0139B2EB011F2CD1D9
:1011700003F4FE42A16AB2EB012F28D103F07842BA
:10118000E16AB2EBC16F24D103F4C001226B5208B3
:10119000013AB1EB425F1ED103F0C063626B5208AB
:1011A000013AB3EB426F18D1002008E001207047EC
:1011B000012004E0012002E0012000E0002002B054
:1011C00070BD0120FBE70120F9E70120F7E70120CE
:1011D000F5E70120F3E70120F1E70120EFE700BF89
:1011E000001002400C809F01FCFFEEFE1E4B9B682E
:1011F00003F00C03042B33D01B4B9B6803F00C0350
:10120000082B2FD0184B9B6803F00C030C2B01D03C
:1012100000207047144BDA6802F00302DB68C3F366
:1012200003130133032A11D01048B0FBF3F00E4B27
:10123000DB68C3F3062303FB00F00B4BDB68C3F34F
:10124000416301335B00B0FBF3F070470848B0FB2B
:10125000F3F0054BDB68C3F3062303FB00F0ECE778
:101260000248704702487047001002400024F40012
:1012700000127A00002800F0E680F8B50C4605461A
:10128000744B1B6803F00F038B420BD2714A136837
:1012900023F00F030B431360136803F00F038B421B
:1012A00040F0D3802E6816F001065FD06B68032BE8
:1012B0002FD0022B4DD0684B1B6813F4806F00F0C9
:1012C000C680FFF793FF654B98424DD9624A9368F9
:1012D00023F0F00343F08003936080265E4A936816
:1012E00023F0030369680B439360FFF7DBFA0746BB
:1012F000594B9B6803F00C036A68B3EB820F35D03F
:10130000FFF7D0FAC01B41F288339842F0D903208E
:1013100078E0514B1B6813F0007F01D1012071E090
:10132000FFF7C6FC4D4B98421AD94B4B9B6813F004
:10133000F00F05D02E6816F00206CFD0AB688BB93F
:10134000454A936823F0F00343F0800393608026BE
:10135000C4E7414B1B6813F4003FB2D1012051E0B8
:101360000026BBE70026B9E70026B7E72B6813F095
:10137000020F48D013F0040F04D0374A936843F4A7
:10138000E06393602B6813F0080F06D0324A93682D
:1013900023F47C5343F4E06393602F4A936823F073
:1013A000F003A9680B4393602A4B1B6803F00F03FB
:1013B000A34230D82B6813F0040F06D0264A936856
:1013C00023F4E063E9680B4393602B6813F0080F84
:1013D00007D0214A936823F46053296943EAC10383
:1013E0009360FFF703FF1C4B9B68C3F303131C4A76
:1013F000D35C03F01F03D8401A4B18601A4B1868CF
:10140000FFF788F9F8BD802ECED1134A936823F0F8
:10141000F0039360C8E70F4A136823F00F032343D8
:101420001360FFF73FFA06460A4B1B6803F00F03F1
:10143000A342BFD0FFF736FA801B41F288339842AF
:10144000F2D90320DEE7012070470120DAE701200E
:10145000D8E700BF002002400010024000B4C404DE
:10146000103600080000002008000020014B18681A
:10147000704700BF0000002008B5FFF7F7FF054BDD
:101480009B68C3F30223044AD35C03F01F03D840D4
:1014900008BD00BF00100240083600080F2303609B
:1014A0000B4B9A6802F0030242609A6802F0F00265
:1014B00082609A6802F4E062C2609B68DB0803F411
:1014C000E0630361034B1B6803F00F030B6070477D
:1014D00000100240002002407047000090F83D30AC
:1014E000DBB2012B3AD1022380F83D300268D36889
:1014F00043F00103D36003681B4A934220D0B3F149
:10150000804F1DD0A2F59432934219D002F580622B
:10151000934215D002F58062934211D002F59432C5
:1015200093420DD002F54062934209D002F58052F9
:10153000934205D01A6842F001021A6000207047F9
:1015400099680A4A0A40062A0AD0B2F5803F09D0B3
:101550001A6842F001021A600020704701207047AB
:101560000020704700207047002C01400700010058
:10157000704770477047704770B505460368DE686E
:101580001C6914F0020F10D016F0020F0DD06FF08E
:1015900002021A610123037703689B6913F0030FAA
:1015A0007CD0FFF7E6FF00232B7714F0040F12D056
:1015B00016F0040F0FD02B686FF004021A6102239B
:1015C0002B772B689B6913F4407F6DD02846FFF77B
:1015D000D0FF00232B7714F0080F12D016F0080F5D
:1015E0000FD02B686FF008021A6104232B772B6849
:1015F000DB6913F0030F5ED02846FFF7BAFF002324
:101600002B7714F0100F12D016F0100F0FD02B689C
:101610006FF010021A6108232B772B68DB6913F433
:10162000407F4FD02846FFF7A4FF00232B7714F00C
:10163000010F02D016F0010F4BD114F4025F02D05B
:1016400016F0800F4DD114F4807F02D016F0800F79
:101650004FD114F0400F02D016F0400F51D114F0CA
:10166000200F02D016F0200F53D114F4801F02D0A7
:1016700016F4801F55D114F4001F02D016F4001F79
:1016800057D114F4800F02D016F4800F59D114F4FE
:10169000000F02D016F4000F5BD170BDFFF768FF9A
:1016A0002846FFF767FF7EE72846FFF761FF2846D9
:1016B000FFF760FF8DE72846FFF75AFF2846FFF740
:1016C00059FF9CE72846FFF753FF2846FFF752FFD4
:1016D000ABE72B686FF001021A612846FEF74AFF5C
:1016E000ABE72B686FF402521A61284600F0E3F86A
:1016F000A9E72B686FF480721A61284600F0DCF8C5
:10170000A7E72B686FF040021A612846FFF733FF06
:10171000A5E72B686FF020021A61284600F0CAF88E
:10172000A3E72B686FF480121A61284600F0C5F811
:10173000A1E72B686FF400121A61284600F0BEF88A
:101740009FE72B686FF480021A61284600F0B7F813
:101750009DE72B686FF400021A61284600F0B0F88C
:101760009BE7000003683A4A904216D0B0F1804FE0
:1017700013D0A2F5943290420FD002F580629042CD
:101780000BD002F58062904207D002F5943290426D
:1017900003D002F5E052904203D123F070034A686F
:1017A00013432B4A904222D0B0F1804F1FD0A2F5B4
:1017B000943290421BD002F58062904217D002F51D
:1017C0008062904213D002F5943290420FD002F51D
:1017D000406290420BD002F58062904207D002F541
:1017E0008062904203D002F50062904203D123F45C
:1017F0004073CA68134323F080034A6913430360AC
:101800008B68C3620B688362114B984213D003F557
:10181000006398420FD003F5406398420BD003F564
:101820008063984207D003F58063984203D003F5A4
:101830000063984201D10B6903630123436103698B
:1018400013F0010F03D0036923F001030361704714
:10185000002C014060B310B5044690F83D3013B33E
:10186000022384F83D30214651F8040BFFF77AFF3C
:10187000012384F8483084F83E3084F83F3084F8FF
:10188000403084F8413084F8423084F8433084F8A2
:10189000443084F8453084F8463084F8473084F882
:1018A0003D30002010BD80F83C30FFF715FED7E733
:1018B0000120704770477047704770477047704706
:1018C0007047842801D00330704700207047EFF341
:1018D0000580003818BF0120704708B501F0E4F812
:1018E000002008BDF0B585B00C464568066807695C
:1018F000B0F90800FFF7E5FF03AB01930090234622
:10190000BAB23146284601F09DF8012802D1039869
:1019100005B0F0BD0020FBE708B500224168006873
:1019200000F090FC08BD30B585B00446019100235D
:101930000393154602B90125FFF7C9FFA8B100239B
:1019400003AA01A9204600F062FD012818D1039BDB
:10195000C3B14FF0E0234FF08052C3F8042DBFF322
:101960004F8FBFF36F8F002008E000232A4601A9A4
:10197000204600F088FC012806D1002005B030BDCB
:10198000FF20FBE70020F9E7FF20F7E770B584B000
:101990000446029100230193E1B10D46164600234F
:1019A0000393FFF794FF00B303AA01A9284600F0B0
:1019B00044FE012816D000230093039BFBB14FF097
:1019C000E0234FF08052C3F8042DBFF34F8FBFF3D5
:1019D0006F8F14E0802300936B4693E8070084E840
:1019E000070011E010230093E7E7324601A92846DB
:1019F00000F074FD01280AD006B1402600966B461F
:101A000093E8070084E80700204604B070BD102367
:101A10000093F4E700F1080343604FF0FF32826067
:101A2000C3600361002303607047002303617047B4
:101A300043684B609A688A605160996008610368E6
:101A400001330360704730B40D68B5F1FF3F11D02A
:101A500000F108031C465B681A68AA42FAD9636859
:101A60004B6099608C6061600861036801330360BA
:101A700030BC70470469F2E70369416882688A6094
:101A8000416851605A68824206D0002202611A6899
:101A9000013A1A601868704782685A60F5E70000DA
:101AA00082B0002301930D4B1B68B3F1FF3F08D0B8
:101AB0004FF0500383F31188BFF36F8FBFF34F8F45
:101AC000FEE74FF0500383F31188BFF36F8FBFF32E
:101AD0004F8F019B002BFCD002B070470C00002000
:101AE00008480068006880F308884FF0000080F321
:101AF000148862B661B6BFF34F8FBFF36F8F00DFFC
:101B000000BF000008ED00E0DFF80C00016841F4C0
:101B1000700101607047000088ED00E04FF08073B5
:101B200040F8043C21F0010140F8081C054B40F846
:101B30000C3C40F8202C6FF0020340F8243C443861
:101B4000704700BFA11A000800000000000000005C
:101B5000074B19680868B0E8F04F80F30988BFF3B5
:101B60006F8F4FF0000080F311887047AFF3008053
:101B7000241700204FF0500383F31188BFF36F8FB9
:101B8000BFF34F8F0B4A136801331360012B00D052
:101B900070474FF0E023D3F8043D13F0FF0FF7D068
:101BA0004FF0500383F31188BFF36F8FBFF34F8F54
:101BB000FEE700BF0C000020094B1B6843B94FF043
:101BC000500383F31188BFF36F8FBFF34F8FFEE78E
:101BD000013B034A13600BB983F31188704700BFC0
:101BE0000C000020000000000000000000000000C9
:101BF000EFF30980BFF36F8F154B1A681EF0100FBB
:101C000008BF20ED108A20E9F04F10602DE909008F
:101C10004FF0500080F31188BFF34F8FBFF36F8FE9
:101C200001F098F84FF0000080F3118809BC1968A2
:101C30000868B0E8F04F1EF0100F08BFB0EC108A33
:101C400080F30988BFF36F8F704700BFAFF3008048
:101C50002417002008B54FF0500383F31188BFF319
:101C60006F8FBFF34F8F00F06DFF28B14FF0E0236F
:101C70004FF08052C3F8042D002383F3118808BD70
:101C80004FF0E022002313619361054B1B68054967
:101C9000A1FB03139B09013B5361072313617047A9
:101CA00000000020D34D62104FF0E023D3F8002D48
:101CB0003D4B9A421CD04FF0E023D3F8002D3B4B14
:101CC0009A421ED030B583B0394B1A78D2B2019205
:101CD000FF221A701B78DBB28DF803309DF80330B9
:101CE00003F05003334A1370334B07221A601BE092
:101CF0004FF0500383F31188BFF36F8FBFF34F8F03
:101D0000FEE74FF0500383F31188BFF36F8FBFF3EB
:101D10004F8FFEE7284A1368013B13609DF803309C
:101D20005B00DBB28DF803309DF8033013F0800FB9
:101D3000F0D1214B1B68032B08D04FF0500383F3E5
:101D40001188BFF36F8FBFF34F8FFEE71B021A4A54
:101D5000136003F4E0631360019BDBB2144A137059
:101D60004FF0E024D4F8203D43F47003C4F8203D44
:101D7000D4F8203D43F07043C4F8203DFFF780FFC6
:101D800000250E4B1D60FFF7BFFED4F8343F43F033
:101D90004043C4F8343FFFF7A3FE00F0DBFFFFF73A
:101DA0007FFE284603B030BD71C20F4170C20F41A3
:101DB00000E400E0D8050020D40500200C0000203D
:101DC000EFF305830F2B0FD9114A9B5CDBB2114A4D
:101DD00012789A4208D94FF0500383F31188BFF369
:101DE0006F8FBFF34F8FFEE74FF0E023D3F80C3D2A
:101DF00003F4E063084A1268934208D94FF0500395
:101E000083F31188BFF36F8FBFF34F8FFEE77047E7
:101E1000F0E300E0D8050020D4050020124A12F0BB
:101E2000070F1ED0D11D21F00701C1F580531344C7
:101E30000A460E480260002141601344083B23F02B
:101E400007030B48036059601960991A51601360C9
:101E5000084B1960084B1960084B4FF000421A609C
:101E600070474FF48053E4E7FC050020F4050020A0
:101E7000F0050020E8050020EC050020DC0500202E
:101E8000164B1A461B688342FBD3516802EB010CC8
:101E9000844509D0416800EB010C634509D003601B
:101EA000904219D01060704740680144516010465C
:101EB000F0E710B40A4C2468A3420BD05B681944C5
:101EC000416013681B680360904200D010605DF8A9
:101ED000044B70470460F7E7704700BFF40500202B
:101EE000F005002038B5044600F024FE384B1B688E
:101EF000B3B1384B1B681C4250D1002C50D004F1B8
:101F0000080214F0070F02D022F007020832002A5C
:101F100055D0314B1B68934253D330490C6804E0D1
:101F2000FFF77CFFE5E721461C466368934202D237
:101F30002368002BF7D1264B1B68A34243D00D68C2
:101F4000083523680B6063689B1A102B10D9A01802
:101F500010F0070F08D04FF0500383F31188BFF340
:101F60006F8FBFF34F8FFEE743606260FFF788FF1C
:101F7000626819490B689B1A0B60194909688B4202
:101F800001D217490B60134B1B6813436360002396
:101F90002360144A13680133136002E0002500E057
:101FA000002500F05BFE15F0070F0ED04FF0500338
:101FB00083F31188BFF36F8FBFF34F8FFEE70025C8
:101FC000EFE70025EDE70025EBE7284638BD00BF29
:101FD000F0050020DC050020EC050020F4050020C1
:101FE000E8050020E4050020002834D038B5044678
:101FF000A0F1080550F8043C174A1268134208D1B2
:102000004FF0500383F31188BFF36F8FBFF34F8FEF
:10201000FEE750F8081C41B14FF0500383F31188DC
:10202000BFF36F8FBFF34F8FFEE723EA020340F841
:10203000043C00F07FFD54F8041C084A13680B446C
:1020400013602846FFF71CFF054A1368013313602D
:1020500000F004FE38BD7047DC050020EC050020D0
:10206000E005002010B50446FFF784FDA26BE36B8A
:102070009A4204D00024FFF79FFD204610BD0124A2
:10208000F9E710B50446FFF775FDA36B23B90124EA
:10209000FFF792FD204610BD0024F9E770B5044615
:1020A0001546866B026C5AB903681BB100200136D5
:1020B000A66370BD806800F061FF0023A360F6E7AF
:1020C0006DB94068FEF78CF86368226C1344636056
:1020D000A268934219D3236863602846E7E7C06883
:1020E000FEF77EF8E368226C51429B1AE360226897
:1020F000934202D2A3680B44E360022D01D000207A
:10210000D5E726B1013E0020D1E72846CFE70020E1
:10211000CDE70346026C6AB110B50846D968114490
:10212000D9609C68A14201D31968D960D968FEF7CB
:1021300057F810BD704738B50546FFF71BFD95F8F9
:10214000454064B201E0013C64B2002C0ADD6B6AD8
:1021500043B105F1240000F067FE0028F3D000F041
:10216000F7FEF0E7FF2385F84530FFF725FDFFF781
:1021700001FD95F8444064B201E0013C64B2002CDA
:102180000ADD2B6943B105F1100000F04DFE002877
:10219000F3D000F0DDFEF0E7FF2385F84430FFF7D1
:1021A0000BFD38BD38B5E0B10D460446FFF7E2FC43
:1021B0002368E26B216C01FB0230A0600020A06369
:1021C0006360013A02FB0133E360FF2384F844308B
:1021D00084F84530FDB9236963B9FFF7EDFC0120B0
:1021E00038BD4FF0500383F31188BFF36F8FBFF3F7
:1021F0004F8FFEE704F1100000F016FE0028ECD02F
:102200004FF0E0234FF08052C3F8042DBFF34F8FFF
:10221000BFF36F8FE1E704F11000FFF7FBFB04F160
:102220002400FFF7F7FBD8E710B5034602980C46E9
:1022300031B90060C36304640121FFF7B3FF10BD2F
:102240000260F7E740B94FF0500383F31188BFF302
:102250006F8FBFF34F8FFEE7F0B583B00C46154686
:10226000064601FB00F04830FFF73CFE074638B158
:1022700000902B4600F1480221463046FFF7D4FF7C
:10228000384603B0F0BDF0B585B0019288B10F4675
:102290001D460446B1B1022D20D1E36B012B1DD0A8
:1022A0004FF0500383F31188BFF36F8FBFF34F8F4D
:1022B000FEE74FF0500383F31188BFF36F8FBFF336
:1022C0004F8FFEE7036C002BE5D04FF0500383F3F4
:1022D0001188BFF36F8FBFF34F8FFEE700F03EFE14
:1022E000064658B9019B002B48D04FF0500383F3AA
:1022F0001188BFF36F8FBFF34F8FFEE700263DE0DD
:102300002A4639462046FFF7C9FE636A7BB948B1C1
:102310004FF0E0234FF08052C3F8042DBFF34F8FEE
:10232000BFF36F8FFFF748FC012005B0F0BD04F14B
:10233000240000F079FD0028F4D04FF0E0234FF0A6
:102340008052C3F8042DBFF34F8FBFF36F8FE9E7BF
:10235000FFF732FC0020E8E702A800F0ABFD012601
:1023600019E0002384F8443021E0002384F845304C
:1023700023E02046FFF7DFFE00F070FCFFF7FAFBDA
:10238000A26BE36B9A42BBD3022DB9D0019B002B09
:10239000DED0002EE0D0FFF70FFC00F0CBFBFFF704
:1023A000E9FB94F8442052B2B2F1FF3FD9D094F83F
:1023B000452052B2B2F1FF3FD7D0FFF7FDFB01A994
:1023C00002A800F083FDD8B92046FFF74BFE002895
:1023D000CFD0019904F1100000F00EFD2046FFF768
:1023E000AAFE00F03BFC0028C8D14FF0E0234FF0DC
:1023F0008052C3F8042DBFF34F8FBFF36F8FBDE73B
:102400002046FFF798FE00F029FC00208DE72DE91B
:10241000F84390B10F4616461C460546B1B1022C52
:1024200020D1EB6B012B1DD04FF0500383F31188AB
:10243000BFF36F8FBFF34F8FFEE74FF0500383F36F
:102440001188BFF36F8FBFF34F8FFEE7036C002B34
:10245000E5D04FF0500383F31188BFF36F8FBFF3C4
:102460004F8FFEE7FFF7ACFCEFF311884FF05003FE
:1024700083F31188BFF36F8FBFF34F8FAA6BEB6BA2
:102480009A4206D3022C04D0002088F31188BDE8BC
:10249000F88395F845904FFA89F9AB6B2246394697
:1024A0002846FFF7FBFDB9F1FF3F06D009F1010314
:1024B0005BB285F845300120E7E76B6A0BB9012074
:1024C000E3E705F1240000F0AFFC18B126B10120CC
:1024D0003060DAE70120D8E70120D6E7F0B585B013
:1024E000019290B10F460446C1B100F037FD064697
:1024F00000BB019B002B5ED04FF0500383F311888B
:10250000BFF36F8FBFF34F8FFEE74FF0500383F39E
:102510001188BFF36F8FBFF34F8FFEE7036C002B63
:10252000E3D04FF0500383F31188BFF36F8FBFF3F5
:102530004F8FFEE700263EE039462046FFF7E9FDD3
:10254000013DA563236923B9FFF736FB012005B0E0
:10255000F0BD04F1100000F067FC0028F4D04FF04B
:10256000E0234FF08052C3F8042DBFF34F8FBFF329
:102570006F8FE9E7FFF720FB0020E8E702A800F0F3
:1025800099FC012621E0002384F8443029E000234F
:1025900084F845302BE02046FFF7CDFD00F05EFBD0
:1025A00009E02046FFF7C7FD00F058FB2046FFF783
:1025B00068FD00283FD1FFF7DDFAA56B002DBBD1E8
:1025C000019B002BD6D0002ED8D0FFF7F5FA00F0F3
:1025D000B1FAFFF7CFFA94F844305BB2B3F1FF3FA2
:1025E000D1D094F845305BB2B3F1FF3FCFD0FFF7C5
:1025F000E3FA01A902A800F069FC0028D1D1204625
:10260000FFF73FFD0028C6D0019904F1240000F037
:10261000F3FB2046FFF78FFD00F020FB0028CAD116
:102620004FF0E0234FF08052C3F8042DBFF34F8FDB
:10263000BFF36F8FBFE7002089E72DE9F843B0B102
:102640000D4690460446D9B1FFF7BAFBEFF3118768
:102650004FF0500383F31188BFF36F8FBFF34F8F99
:10266000A66BCEB9002087F31188BDE8F8834FF040
:10267000500383F31188BFF36F8FBFF34F8FFEE7D3
:10268000036C002BE0D04FF0500383F31188BFF3AD
:102690006F8FBFF34F8FFEE794F844904FFA89F99C
:1026A00029462046FFF735FD731EA363B9F1FF3FAE
:1026B00006D009F101035BB284F844300120D2E76F
:1026C00023690BB90120CEE704F1100000F0ACFB48
:1026D00030B1B8F1000F05D00120C8F80000C2E702
:1026E0000120C0E70120BEE7084B1B681B6823B927
:1026F000074B4FF0FF321A607047044B1B68DB68D2
:10270000DB685A68024B1A60704700BF6C160020E5
:10271000041600202DE9F04707469846089DDDF88D
:1027200024900A9C266B02F18042013A06EB820655
:1027300026F00706002964D008464FF0000CBCF1D3
:102740000F0F09D810F80C2004EB0C0383F8342089
:1027500012B10CF1010CF2E7002384F84330062D8E
:1027600000D90625E56265644FF0000AC4F848A068
:10277000201DFFF75AF904F11800FFF756F92461FC
:10278000C5F10705A5616462C4F870A184F874A15D
:102790004FF49072514604F1500000F047FC1B4B7F
:1027A000636503F16802A265D033E365012200236B
:1027B000C4E93A2343F20E33A4F8F0304AF6CD339D
:1027C000A4F8F23041F23423A4F8F4304EF26D63F1
:1027D000A4F8F6304DF6EC63A4F8F8300523A4F81D
:1027E000FA300B23A4F8FC30424639463046FFF756
:1027F00095F92060B9F1000F01D0C9F80040BDE89B
:10280000F087002384F83430A9E700BF28170020A0
:1028100038B5002407E004EB840293000E48184406
:10282000FFF7F8F80134062CF5D90C4D2846FFF7D0
:10283000F1F80B4C2046FFF7EDF80A48FFF7EAF8ED
:102840000948FFF7E7F80948FFF7E4F8084B1D606F
:10285000084B1C6038BD00BF98160020841600206D
:102860007016002054160020401600202816002064
:102870006C1600206816002010B50446FFF77AF9A0
:10288000214A136801331360204B1B685BB1204B56
:102890001B686BB91D4B1B68DA6AE36A9A4207D85A
:1028A0001A4B1C6004E0194B1C601368012B28D0E4
:1028B000184A136801331360E06A01238340164A03
:1028C00011680B43136000EB8000211D134B03EBD9
:1028D0008000FFF7ADF8FFF76FF90D4B1B687BB178
:1028E0000A4B1B68DA6AE36A9A4209D24FF0E02386
:1028F0004FF08052C3F8042DBFF34F8FBFF36F8F9B
:1029000010BDFFF785FFD3E7241600202417002011
:1029100018160020081600201C160020981600200B
:1029200010B50446503000F0D3FB206BFFF75CFB82
:102930002046FFF759FB10BD0F4B1B68D3B110B5F4
:10294000FFF718F90D4BDB68DC68201DFFF794F8E2
:102950000B4A1368013B1360074A1368013B13607D
:10296000FFF72AF92046FFF7DBFF034B1B68002B1C
:10297000E6D110BD704700BF3C1600204016002075
:102980002416002008B5FFF7D7FF074B1B68012B63
:10299000F9D94FF0E0234FF08052C3F8042DBFF374
:1029A0004F8FBFF36F8FEEE79816002070B5044687
:1029B0000D461D4B1E681D4B18680430FFF75CF870
:1029C00048B91A4B1B68DB6A01229A4018490B6808
:1029D00023EA02030B60B4F1FF3F0DD03444134BE4
:1029E0001B685C60A64210D9124B18680F4B19681F
:1029F0000431FFF728F870BD002DEFD00B4B19689C
:102A000004310D48FFF714F8F5E70C4B1868074B35
:102A100019680431FFF717F8094B1B68A342EAD97C
:102A2000074B1C60E7E700BF20160020241700209A
:102A30001C16002068160020281600206C160020A6
:102A4000041600202DE9F04385B007460E461446D3
:102A50001D469000FFF746FA00B381464FF4BC7064
:102A6000FFF740FA804698B1C0F8309000230393F6
:102A700002900D9B01930C9B00932B4622463146FE
:102A80003846FFF747FE4046FFF7F6FE012007E015
:102A90004846FFF7A9FA4FF0FF3001E04FF0FF3052
:102AA00005B0BDE8F083000000B583B0194B019379
:102AB00000230093802218491848FFF7C3FF01281C
:102AC00005D0B0F1FF3F1CD003B05DF804FB4FF020
:102AD000500383F31188BFF36F8FBFF34F8F104BF9
:102AE0001B6850330F4A13600F4B4FF0FF321A60D0
:102AF0000E4B01221A600E4B00221A60FFF7D4F829
:102B0000E2E74FF0500383F31188BFF36F8FBFF3F9
:102B10004F8FFEE7001600200036000885290008C8
:102B20002417002010000020041600201816002092
:102B300020160020024A136801331360704700BF5B
:102B4000FC150020F8B53A4B1B68002B69D1394BB6
:102B50001D6801351D60C5B9374B1B681B6843B143
:102B60004FF0500383F31188BFF36F8FBFF34F8F84
:102B7000FEE7314A1168314B186810601960304A1D
:102B8000136801331360FFF7AFFD2E4B1B68AB4298
:102B90003DD900272C4B1B68DB6A03EB83039A00AB
:102BA0002A4B9B58012B00D90127294B1B68002B6E
:102BB0003CD001273AE001271F4B1B681B6843B339
:102BC0001D4B1B68DB68DC6863689D4226D3261DAD
:102BD0003046FEF751FFA36A1BB104F11800FEF75F
:102BE0004BFFE36A01229A401A49086802430A60CF
:102BF00003EB83039A00314614481044FEF718FF94
:102C0000E26A114B1B68DB6A9A42D4D2D4E70027F0
:102C1000D2E70C4B4FF0FF321A60BBE7094A136052
:102C2000B8E70D4A13680133136000273846F8BD32
:102C3000FC150020201600206C16002068160020CD
:102C40000C160020041600202417002098160020DF
:102C5000101600201C1600201416002038B5354B25
:102C60001B6843B94FF0500383F31188BFF36F8F94
:102C7000BFF34F8FFEE7FEF77DFF2E4B1A68013A38
:102C80001A601B68002B4FD12B4B1B680BB900241B
:102C90004BE00024294B1B681BB3284BDB68DC6826
:102CA00004F11800FEF7E8FE251D2846FEF7E4FEB5
:102CB000E06A01238340224A11680B43136000EB52
:102CC000800029461F4B03EB8000FEF7B1FEE26A4D
:102CD0001D4B1B68DB6A9A42DCD31C4B01221A6035
:102CE000D8E70CB1FFF700FD194B1C6884B9174BEE
:102CF0001C68D4B14FF0E0234FF08052C3F8042D8C
:102D0000BFF34F8FBFF36F8F01240EE0013C07D05C
:102D1000FFF718FF0028F9D00C4B01221A60F5E7E5
:102D20000B4B00221A60E2E70024FEF745FF204625
:102D300038BD00BFFC1500202416002054160020CA
:102D40001C160020981600202417002010160020C2
:102D500014160020224B1B681BB1224B01221A6063
:102D60007047204B00221A601F4B1B68B3FA83F395
:102D7000DBB2C3F11F0303EB83018A001B498A58AE
:102D800042B94FF0500383F31188BFF36F8FBFF345
:102D90004F8FFEE7154803EB83018A000244516818
:102DA0004968516003EB830C4FEA8C0208320244FD
:102DB00091420DD003EB83039A000C4B13445B68E4
:102DC000DA680B4B1A601B6850330A4A136070476D
:102DD000486862469100054A0A445060EAE700BF2D
:102DE000FC150020101600201C160020981600204C
:102DF000241700201000002058B110B50C46094AD5
:102E000011681831FEF71FFE01212046FFF7CEFDA5
:102E100010BD4FF0500383F31188BFF36F8FBFF3E2
:102E20004F8FFEE72417002038B5C368DC6824B351
:102E300004F118052846FEF71FFE184B1B682BBB34
:102E4000251D2846FEF718FEE06A01238340144A38
:102E500011680B43136000EB80002946114B03EB14
:102E60008000FEF7E5FDE26A0F4B1B68DB6A9A42C1
:102E700011D901200D4B186038BD4FF0500383F37A
:102E80001188BFF36F8FBFF34F8FFEE729460848C5
:102E9000FEF7CEFDE7E70020EEE700BFFC150020BF
:102EA0001C16002098160020241700201016002061
:102EB00054160020034B1B680360034B1B684360E0
:102EC000704700BF0C16002020160020F8B5C8B1CE
:102ED0000C460546F9B1FEF74DFE1B4B19686B68B1
:102EE000C81A2268B2F1FF3F26D0184E36682F6804
:102EF000B74201D08B4224D9824215D800232360E7
:102F000001241AE04FF0500383F31188BFF36F8F51
:102F1000BFF34F8FFEE74FF0500383F31188BFF3E9
:102F20006F8FBFF34F8FFEE75B1A13442360284671
:102F3000FFF7C0FF002400E00024FEF73DFE20461E
:102F4000F8BD0124F9E700BF201600200C16002070
:102F5000014B01221A60704710160020054B1B68B8
:102F600033B1054B1B680BB100207047022070473E
:102F70000120704718160020FC15002000284BD0B7
:102F800038B50446264B1B68834208D04FF05003E7
:102F900083F31188BFF36F8FBFF34F8FFEE7836C0E
:102FA00043B94FF0500383F31188BFF36F8FBFF322
:102FB0004F8FFEE7013B8364C16A426C91422DD082
:102FC0000BB1002038BD051D2846FEF755FD68B938
:102FD000E36A03EB8302920012498A5832B9012254
:102FE0009A4011490B6823EA02030B60606CE062AF
:102FF000C0F10703A361012404FA00F30A4A11682F
:103000000B43136000EB80002946064B03EB800066
:10301000FEF70EFD2046D5E7002070470020D1E7DF
:1030200024170020981600201C160020830730B5B6
:1030300047D0541E002A3ED0CAB2034601E0013CEC
:1030400039D303F8012B9D07F9D1032C2CD9CDB22C
:1030500005EB05250F2C05EB054535D9A4F110022C
:1030600022F00F0C03F1100EE6444FEA121C1A4630
:10307000C2E90055C2E9025510327245F8D10CF18F
:10308000010214F00C0F03EB021204F00F0C13D02A
:10309000ACF1040323F003030433134442F8045B4C
:1030A0009342FBD10CF003042CB1C9B21C4403F8C9
:1030B000011BA342FBD130BD64461346002CF4D162
:1030C000F9E703461446C0E71A46A446E0E700BF06
:1030D000154B1B68834225D0416C70B5054681B104
:1030E00000268C593CB121462468284600F0BCF8E3
:1030F000002CF8D1696C0436802EF2D1284600F0FD
:10310000B3F8A96B11B1284600F0AEF8E96C11B123
:10311000284600F0A9F86B6B1BB12846BDE870404B
:10312000184770BD704700BF10000020014B1868A1
:10313000704700BF1000002070B50F4B0F4DAB4221
:10314000A3EB050607D0B610002455F8043B013464
:103150009847A642F9D800F003FA094D094B5E1BC7
:10316000AB424FEAA60606D0002455F8043B0134D2
:103170009847A642F9D870BD2836000828360008BE
:103180002836000830360008704700BF704700BF7F
:10319000024B13B1024800F005B870470000000070
:1031A0009D340008002301461A46184600F098B9DD
:1031B0002DE9F84306460820894600F083F9DFF838
:1031C000A4800546304600F04BF9D8F808305F6817
:1031D00027F00307A7F11104A4EB09042C44B4FB66
:1031E000F5F4013C05FB04F4A54208DC002130465F
:1031F00000F042F9D8F808303B44984205D03046F8
:1032000000F034F90020BDE8F8836142304600F058
:1032100033F901300FD0114AD8F808303F1B47F07E
:1032200001075F60136830461B1B136000F01EF936
:103230000120BDE8F8830021304600F01DF9D8F8E0
:103240000820831A0F2BDADD43F001035360044B8F
:1032500002491B68C01A0860D1E700BF701800203F
:103260003C0100204801002000297CD02DE9F041DC
:103270000C46804600F0F4F854F8043C754FA4F175
:10328000080523F001016818BE684268864222F0F2
:10329000030200F08380DE07426000EB020C33D4AF
:1032A00054F8084CDCF804302D1B2144AC6807F1BD
:1032B000080C644503F0010364D0D5F80CE0C4F8B1
:1032C0000CE0CEF80840002B00F0818041F00103B3
:1032D0006B600160B1F5007F22D27868CB080122D3
:1032E000490901338A40024357F833107A6007EBEB
:1032F000C302083AC5E9021247F83350CD60404690
:10330000BDE8F04100F0B2B8DCF80430DB072BD5A3
:1033100041F00103B1F5007F44F8043C0160DCD3C7
:10332000B1F5206F4FEA512353D28B0903F13900D5
:1033300003F13802C300F818FB580838984203D14B
:1033400061E09B68984204D05A6822F003028A42E6
:10335000F7D8D868C5E902308560DD604046BDE831
:10336000F04100F083B87047114407F1080C8368FE
:1033700063453FD0C268DA60936041F001036B603F
:103380006950A7E7002B5FD10A44D0E90213CB6054
:10339000996042F001036B60AA50B0E7DB070A4472
:1033A00007D454F8083CED1A1A44D5E90213CB604F
:1033B000996042F001036B60274BBD601B6893422C
:1033C0009DD8264B40461968FFF7F2FE97E7114457
:1033D000CDE7142B08D9542B1DD80B0B03F16F002C
:1033E00003F16E02C300A6E703F15C0003F15B0288
:1033F000C300A0E741F00103C7E90455C5E902CCC9
:103400006B6069507BE779689210012404FA02F23C
:103410000A437A609EE7B3F5AA7F06D8CB0B03F187
:10342000780003F17702C30085E740F254529342DB
:1034300006D88B0C03F17D0003F17C02C3007AE710
:103440004FF47E737E2276E741F001036B600160EA
:1034500055E700BF480100204001002098180020D7
:103460000148FFF791BE00BF641800200148FFF734
:103470008DBE00BF6418002038B5074D00220446F9
:1034800008462A60FDF79CF9431C00D038BD2B6824
:10349000002BFBD0236038BD6018002038B5074DE5
:1034A000074C2C1BA41005D0013C55F8043D98474F
:1034B000002CF9D1BDE8384000F058B83436000887
:1034C00030360008082802D14FF48050704708B504
:1034D000FFF72CFE162303604FF0FF3008BD00BF3E
:1034E0002DE9F8431B4D0646286898460F4691463D
:1034F000FFF74AFE184B1C681CB3286865681F2D2F
:1035000022DC4EB96B1C0235636044F82570FFF76E
:103510003DFE0020BDE8F88304EB85010123C1F8DE
:103520008890D4F88821AB401A43022EC4F8882131
:10353000C1F80881E6D1D4F88C211A43C4F88C2153
:10354000E0E7064C1C60D8E7FFF720FE4FF0FF30A5
:10355000E0E700BF380100206C1800209C18002014
:10356000F8B500BFF8BC08BC9E467047F8B500BF70
:08357000F8BC08BC9E46704740
:103578001000000002000000F43500081D040008D7
:10358800000000000000000080000000E83500088E
:10359800B1040008000000000000000080000000E6
:1035A800DC3500080D0500080000000000000000E0
:1035B80080000000D0350008410500080000000028
:1035C8000000000080000000627574746F6E546122
:1035D800736B4300627574746F6E5461736B420051
:1035E800627574746F6E5461736B410064656661D3
:1035F800756C745461736B0049444C4500000000BD
:1036080000000000010203040000000000000000A8
:08361800010203040607080982
:08362000C0CBFF7F0100000098
:08362800913100087D03000848
:043630005503000836
:103634000024F4000100000010000000AAAAAAAAB5
:1036440018000020000000000000000028170020DF
:1036540090170020F8170020000000000000000070
:103664000000000000000000000000000000000056
:103674000000000000000000000000000000000046
:103684000000000000000000000000000000000036
:103694000000000000000000000000000000000026
:1036A4000000000000000000000000000000000016
:1036B4000000000000000000000000000000000006
:1036C40000000000000000000000000000000000F6
:1036D40000000000000000000000000000000000E6
:1036E40001000000000000000E33CDAB34126DE683
:1036F400ECDE05000B0000000000000000000000EC
:1037040000000000000000000000000000000000B5
:1037140000000000000000000000000000000000A5
:103724000000000000000000000000000000000095
:103734000000000000000000000000000000000085
:103744000000000000000000000000000000000075
:103754000000000000000000000000000000000065
:10376400000000000000000068180020FFFFFFFFB9
:103774000000020000000000000000000000000043
:103784004801002048010020500100205001002081
:103794005801002058010020600100206001002031
:1037A40068010020680100207001002070010020E1
:1037B4007801002078010020800100208001002091
:1037C4008801002088010020900100209001002041
:1037D4009801002098010020A0010020A0010020F1
:1037E400A8010020A8010020B0010020B0010020A1
:1037F400B8010020B8010020C0010020C001002051
:10380400C8010020C8010020D0010020D001002000
:10381400D8010020D8010020E0010020E0010020B0
:10382400E8010020E8010020F0010020F001002060
:10383400F8010020F801002000020020000200200E
:1038440008020020080200201002002010020020BC
:10385400180200201802002020020020200200206C
:10386400280200202802002030020020300200201C
:1038740038020020380200204002002040020020CC
:10388400480200204802002050020020500200207C
:10389400580200205802002060020020600200202C
:1038A40068020020680200207002002070020020DC
:1038B400780200207802002080020020800200208C
:1038C400880200208802002090020020900200203C
:1038D4009802002098020020A0020020A0020020EC
:1038E400A8020020A8020020B0020020B00200209C
:1038F400B8020020B8020020C0020020C00200204C
:10390400C8020020C8020020D0020020D0020020FB
:10391400D8020020D8020020E0020020E0020020AB
:10392400E8020020E8020020F0020020F00200205B
:10393400F8020020F8020020000300200003002009
:1039440008030020080300201003002010030020B7
:103954001803002018030020200300202003002067
:103964002803002028030020300300203003002017
:1039740038030020380300204003002040030020C7
:103984004803002048030020500300205003002077
:103994005803002058030020600300206003002027
:1039A40068030020680300207003002070030020D7
:1039B4007803002078030020800300208003002087
:1039C4008803002088030020900300209003002037
:1039D4009803002098030020A0030020A0030020E7
:1039E400A8030020A8030020B0030020B003002097
:1039F400B8030020B8030020C0030020C003002047
:103A0400C8030020C8030020D0030020D0030020F6
:103A1400D8030020D8030020E0030020E0030020A6
:103A2400E8030020E8030020F0030020F003002056
:103A3400F8030020F8030020000400200004002004
:103A440008040020080400201004002010040020B2
:103A54001804002018040020200400202004002062
:103A64002804002028040020300400203004002012
:103A740038040020380400204004002040040020C2
:103A84004804002048040020500400205004002072
:103A94005804002058040020600400206004002022
:103AA40068040020680400207004002070040020D2
:103AB4007804002078040020800400208004002082
:103AC4008804002088040020900400209004002032
:103AD4009804002098040020A0040020A0040020E2
:103AE400A8040020A8040020B0040020B004002092
:103AF400B8040020B8040020C0040020C004002042
:103B0400C8040020C8040020D0040020D0040020F1
:103B1400D8040020D8040020E0040020E0040020A1
:103B2400E8040020E8040020F0040020F004002051
:103B3400F8040020F80400200005002000050020FF
:103B440008050020080500201005002010050020AD
:103B5400180500201805002020050020200500205D
:103B6400280500202805002030050020300500200D
:103B740038050020380500204005002040050020BD
:040000050800081DCA
:00000001FF
