:020000040800F2
:1000000000000220D9080008610800086308000801
:10001000650800086708000869080008000000007B
:10002000000000000000000000000000111C00089B
:100030006B08000800000000B11C0008151D000836
:1000400029090008290900082909000829090008C8
:1000500029090008290900082909000829090008B8
:1000600029090008290900082909000829090008A8
:100070002909000829090008290900082909000898
:100080002909000829090008290900082909000888
:100090002909000829090008290900082909000878
:1000A0002909000829090008290900082909000868
:1000B0006D08000829090008290900082909000815
:1000C0002909000829090008290900082909000848
:1000D0002909000829090008290900082909000838
:1000E0002909000829090008290900082909000828
:1000F0002909000829090008290900082909000818
:100100002909000829090008290900082909000807
:1001100029090008290900082909000829090008F7
:1001200029090008290900082909000829090008E7
:1001300029090008290900082909000829090008D7
:1001400029090008290900082909000829090008C7
:1001500029090008290900082909000829090008B7
:1001600029090008290900082909000829090008A7
:100170002909000829090008290900082909000897
:100180002909000829090008290900082909000887
:1001900029090008000000002909000829090008B1
:1001A0002909000829090008290900082909000867
:1001B0002909000829090008290900082909000857
:1001C0002909000829090008290900082909000847
:0801D0002909000829090008B3
:1001E000844641EA000313F003036DD1403A41D342
:1001F00051F8043B40F8043B51F8043B40F8043B01
:1002000051F8043B40F8043B51F8043B40F8043BF0
:1002100051F8043B40F8043B51F8043B40F8043BE0
:1002200051F8043B40F8043B51F8043B40F8043BD0
:1002300051F8043B40F8043B51F8043B40F8043BC0
:1002400051F8043B40F8043B51F8043B40F8043BB0
:1002500051F8043B40F8043B51F8043B40F8043BA0
:1002600051F8043B40F8043B51F8043B40F8043B90
:10027000403ABDD2303211D351F8043B40F8043B30
:1002800051F8043B40F8043B51F8043B40F8043B70
:1002900051F8043B40F8043B103AEDD20C3205D340
:1002A00051F8043B40F8043B043AF9D2043208D038
:1002B000D2071CBF11F8013B00F8013B01D30B88AA
:1002C00003806046704700BF082A13D38B078DD088
:1002D00010F003038AD0C3F10403D21ADB071CBF5A
:1002E00011F8013B00F8013B80D331F8023B20F8C4
:1002F000023B7BE7043AD9D3013A11F8013B00F8FD
:10030000013BF9D20B7803704B7843708B78837084
:10031000604670470348044B834202D0034B03B14D
:1003200018477047500500205005002000000000CD
:100330000548064B1B1AD90F01EBA301491002D047
:10034000034B03B1184770475005002050050020AB
:100350000000000010B5064C237843B9FFF7DAFF20
:10036000044B13B10448AFF300800123237010BD88
:100370005005002000000000A039000808B5054B1A
:100380001BB105490548AFF30080BDE80840FFF701
:10039000CFBF00BF0000000054050020A0390008B6
:1003A0002DE9F04188B00024039404940594069448
:1003B0000794264BDA6C42F01002DA64DA6C02F031
:1003C00010020092009ADA6C42F00202DA64DA6CEF
:1003D00002F002020192019ADA6C42F00802DA6439
:1003E000DB6C03F008030293029BDFF86C8022466B
:1003F0004FF6FF71404600F012FC154E22464FF4B6
:100400000041304600F00BFC4FF6FF7303930125CB
:10041000049505940327069703A9404600F00EFBB8
:100420004FF4E04303930494059503A9094800F0B1
:1004300005FB4FF40043039304950594069703A925
:10044000304600F0FBFA08B0BDE8F0810010024031
:10045000000C00480004004800100048F0B585B0CA
:10046000002501271DE0029B012B04D0B3F1FF3FC3
:1004700020D1002720E00127F8E7012202FA05F445
:10048000A4B2184E2146304600F0C9FB642001F0AA
:100490008DFA00222146304600F0C1FB1EE00135F6
:1004A000EDB20A22104B196801A801F0D4FA019BA1
:1004B000102BD8D0002FE0D14FF400442C41A4B22F
:1004C000084E01222146304600F0A9FB642001F0CD
:1004D0006DFA00222146304600F0A1FB0E2DDED938
:1004E0000025DEE7001000487005002008B54FF435
:1004F0008051124800F08CFB0028F8D14FF4805155
:100500000E4800F085FB0028F8D064210C4B1868D9
:1005100002F0FBF80128EAD10A220121094B1868F0
:1005200001F066FA00231A4619460548006801F0F2
:1005300012FF0A2001F03AFAD9E700BF0004004890
:100540006C0500207005002008B54FF400511248DA
:1005500000F05EFB0028F8D14FF400510E4800F087
:1005600057FB0028F8D064210C4B186802F0CDF836
:100570000128EAD10A224FF0FF31094B186801F037
:1005800037FA00231A4619460448006801F0E3FED2
:100590000A2001F00BFAD8E7000400486C0500209F
:1005A0007005002010B500240CE000231A461946FF
:1005B0001648006801F0CFFE00224FF400411448B5
:1005C00000F02DFB4FF48041124800F021FB002881
:1005D000F8D14FF480410F4800F01AFB0028F8D002
:1005E000013404F0010448BF6442012CDDD16421D0
:1005F000064B186802F089F80128D6D101224FF481
:100600000041034800F00BFBDCE700BF6C05002055
:10061000000C00480004004808B50368B3F1804F9F
:1006200000D008BD00F090F9FBE772B6FEE700B518
:1006300095B03822002106A802F018FF0020019092
:10064000029003900490059000F0EEFA02230693C6
:100650004FF48072099240220A920D930E93042265
:100660000F925522109211931293139306A800F043
:1006700095FB80B90F230193032302930023039377
:100680000493059304210DEB010000F03DFE20B919
:1006900015B05DF804FBFFF7C8FFFFF7C6FF0000C9
:1006A00000B599B000F041F9FFF7C1FFFFF778FE00
:1006B00000251795012117A801F07FF92C4B186030
:1006C0002C4C15AB94E8030083E803002946184638
:1006D00001F087F9284B18600DF1400C04F1080E69
:1006E000BEE80F00ACE80F00DEF80030CCF80030B8
:1006F000294610A801F040F9204B18600DF12C0C90
:1007000004F11C0EBEE80F00ACE80F00DEF800306C
:10071000CCF8003029460BA801F02EF9184B1860D0
:100720000DF1180C04F1300EBEE80F00ACE80F001C
:10073000DEF80030CCF80030294606A801F01CF99C
:10074000104B18600DF1040E04F1440CBCE80F00CE
:10075000AEE80F00DCF80030CEF80030294601A8E2
:1007600001F00AF9084B186001F001F9FEE700BF3B
:100770006C050020B83900087005002080050020B5
:100780007C050020780500207405002000B583B0AA
:100790000E4B1A6E42F001021A661A6E02F0010246
:1007A0000092009A9A6D42F080529A659B6D03F018
:1007B00080530193019B00220F216FF0010000F094
:1007C00029F900F0B7FA03B05DF804FB001002400D
:1007D00030B589B004461E4B9A6D42F001029A650D
:1007E0009B6D03F001030193019B02A903A800F094
:1007F0009FFE00F08BFE174AA2FB00239B0C013BDF
:1008000015484FF08042026040F2E732C260436018
:1008100000230361836001F067F8054610B12846A4
:1008200009B030BD0C4800F0A3FE05460028F6D103
:100830001C2000F0FFF80F2C01D90125EFE7002262
:1008400021461C2000F0E6F8044B1C60E7E700BFDF
:100850000010024083DE1B438405002008000020B6
:10086000FEE7FEE7FEE7FEE7FEE7704708B5024851
:1008700000F0CCFE08BD00BF8405002010B5034683
:100880000C4A0D490D48006840B10C48006803440B
:10089000521A934206D8094A136010BD0748084C03
:1008A0000460F2E702F062FE0C2303604FF0FF30B9
:1008B000F3E700BF0000022000040000D005002084
:1008C000301A0020034AD2F8883043F47003C2F88B
:1008D0008830704700ED00E00D488546FFF7F2FFD5
:1008E0000C480D490D4A002302E0D458C45004338B
:1008F000C4188C42F9D30A4A0A4C002301E0136061
:100900000432A242FBD302F037FEFFF7C9FEFEE736
:10091000000002200000002050050020803A00085E
:1009200050050020301A0020FEE710B5032000F02B
:100930005FF80F20FFF74CFF10B10124204610BDD7
:100940000446FFF723FFF9E7034A136803490968E0
:100950000B441360704700BFD40500200400002042
:10096000014B1868704700BFD4050020002807DB42
:1009700000F01F02400901239340024A42F8203050
:10098000704700BF00E100E0002808DB0901C9B2A0
:1009900000F1604000F5614080F80013704700F0FE
:1009A0000F000901C9B2014B1954704714ED00E062
:1009B00000B500F00700C0F1070CBCF1040F28BF20
:1009C0004FF0040C031D062B0FD9C31E4FF0FF3E42
:1009D0000EFA0CF021EA000199400EFA03FE22EA19
:1009E0000E0241EA02005DF804FB0023EEE700007E
:1009F000074AD36823F4E0631B041B0C000200F4D5
:100A0000E060034343F0BF6343F40033D3607047B7
:100A100000ED00E010B50446054BD868C0F3022095
:100A2000FFF7C6FF01462046FFF7AEFF10BD00BF2F
:100A300000ED00E008B5FFF799FF08BDF0B583B001
:100A4000002362E085685E000324B44025EA0405C3
:100A5000CC68B4402C438460456825EA0C054C689A
:100A6000C4F300149C402C4344605FE0DD0808356B
:100A700050F8254003F0070C4FEA8C0C4FF00F0E96
:100A80000EFA0CFE24EA0E0E0C6904FA0CF444EA89
:100A90000E0440F8254060E0052400E0002404FA3C
:100AA0000EF42C430CF1020C554D45F82C40554CDE
:100AB000A568D44325EA02064F6817F4801F01D0C9
:100AC00042EA05064F4DAE60ED6804EA05064F6840
:100AD00017F4001F01D042EA05064A4DEE606D682A
:100AE00004EA05064F6817F4003F01D042EA050604
:100AF000444D6E602D682C404E6816F4803F01D046
:100B000042EA05043F4A146001330A6832FA03F4EA
:100B100074D04FF0010C0CFA03FC1CEA0202F3D073
:100B20004C6804F00304013C012C8BD94C6804F0A0
:100B30000304032C0CD0C4685D004FF0030C0CFAC6
:100B400005FC24EA0C0C8C68AC4044EA0C04C4603C
:100B50004C6804F00304022C88D004684FEA430E6A
:100B60004FF0030C0CFA0EFC24EA0C0C4C6804F059
:100B7000030404FA0EF444EA0C0404604C6814F410
:100B8000403FC1D0204C256E45F001052566246EFE
:100B900004F001040194019C4FEA930C0CF102054E
:100BA000174C54F8255003F0030E4FEA8E0E0F2415
:100BB00004FA0EF425EA0405B0F1904F3FF46EAF4D
:100BC000124CA04212D004F58064A04210D004F56B
:100BD0008064A0420ED004F58064A0420CD004F5DD
:100BE0008064A0423FF458AF062458E7012456E73A
:100BF000022454E7032452E7042450E703B0F0BD75
:100C000000000140000401400010024000040048C0
:100C10000369194201D001207047002070470AB1D2
:100C20008161704781627047002836D13E4B1B6856
:100C300003F4C063B3F5806F08D03B4AD2F880302C
:100C400023F48073C2F8803000207047364AD2F80F
:100C5000803023F48073C2F88030136823F4C063BB
:100C600043F400731360314B1B68322202FB03F321
:100C70002F4AA2FB03239B0C013300E0013B2A4ACD
:100C8000526912F4806F01D0002BF7D1264B5B69BB
:100C900013F4806F44D100207047B0F5007F08D076
:100CA000214A136823F4C06343F480631360002077
:100CB00070471D4B1B6803F4C063B3F5806F08D009
:100CC000194AD2F8803043F48073C2F88030002093
:100CD0007047154AD2F8803043F48073C2F88030F0
:100CE000136823F4C06343F4007313600F4B1B6855
:100CF000322202FB03F30E4AA2FB03239B0C0133B7
:100D000000E0013B084A526912F4806F01D0002BC9
:100D1000F7D1054B5B6913F4806F03D10020704756
:100D2000032070470320704700700040000000203F
:100D300083DE1B43024A936843F480439360704709
:100D400000700040124BDA6802F00302DB68C3F364
:100D500003130133032A11D00E48B0FBF3F00C4B00
:100D6000DB68C3F3062303FB00F0094BDB68C3F326
:100D7000416301335B00B0FBF3F070470648B0FB02
:100D8000F3F0034BDB68C3F3062303FB00F0ECE74F
:100D9000001002400024F40000127A00002800F045
:100DA0004F8270B582B00446036813F0010F37D04C
:100DB000A44A936803F00C03D26802F003020C2BE0
:100DC00023D0082B23D06368B3F5803F4ED0B3F512
:100DD000A02F51D09B4B1A6822F480321A601A68F7
:100DE00022F480221A606368002B52D0FFF7B8FD0E
:100DF0000546944B1B6813F4003F11D1FFF7B0FD7B
:100E0000401B6428F5D9032023E2032AD9D18D4B56
:100E10001B6813F4003F03D06368002B00F01282BC
:100E2000236813F0020F5DD0864A936803F00C0329
:100E3000D26802F003020C2B3AD0042B3AD0E368BC
:100E4000002B75D07F4A136843F480731360FFF75B
:100E500087FD05467B4B1B6813F4806F5FD1FFF75E
:100E60007FFD401B0228F5D90320F2E1754A136883
:100E700043F480331360B6E703F18043A3F53C33BA
:100E80001A6842F480221A601A6842F480321A60AA
:100E9000A9E7FFF765FD05466A4B1B6813F4003FA1
:100EA000BED0FFF75DFD401B6428F5D90320D0E1DB
:100EB000022AC2D1634B1B6813F4806F03D0E3682E
:100EC000002B00F0C1815F4A536823F0FE43216983
:100ED00043EA016353605C4B1868FFF779FC002814
:100EE00040F0B481236813F0080F4CD063699BB3C2
:100EF000544AD2F8943043F00103C2F89430FFF71B
:100F00002FFD05464F4BD3F8943013F0020F3AD122
:100F1000FFF726FD401B0228F4D9032099E1494A36
:100F2000536823F0FE43216943EA01635360D9E724
:100F3000444A136823F480731360FFF711FD0546DC
:100F4000404B1B6813F4806FCCD0FFF709FD401BAA
:100F50000228F5D903207CE13A4AD2F8943023F0F4
:100F60000103C2F89430FFF7FBFC0546354BD3F87C
:100F7000943013F0020F06D0FFF7F2FC401B02285A
:100F8000F4D9032065E1236813F0040F00F0818099
:100F90002C4B9B6D13F0805F36D12A4B9A6D42F03B
:100FA00080529A659B6D03F080530193019B01254C
:100FB000264B1B6813F4807F28D0A368012B39D0FF
:100FC000052B45D01F4BD3F8902022F00102C3F827
:100FD0009020D3F8902022F00402C3F89020A36858
:100FE000002B43D0FFF7BCFC0646164BD3F89030DD
:100FF00013F0020F4CD1FFF7B3FC801B41F2883392
:101000009842F2D9032024E10025D1E70F4A136862
:1010100043F480731360FFF7A3FC06460B4B1B6879
:1010200013F4807FC9D1FFF79BFC801B0228F5D900
:1010300003200EE1034AD2F8903043F00103C2F8D6
:101040009030CCE700100240080000200070004003
:10105000884BD3F8902042F00402C3F89020D3F8D4
:10106000902042F00102C3F89020B8E7FFF778FC27
:101070000646804BD3F8903013F0020F08D0FFF7EC
:101080006FFC801B41F288339842F2D90320E0E0E4
:10109000E5B9236813F0200F35D0A369E3B1754A91
:1010A000D2F8983043F00103C2F89830FFF758FCAB
:1010B0000546704BD3F8983013F0020F23D1FFF799
:1010C0004FFC401B0228F4D90320C2E0694A936D0B
:1010D00023F080539365DCE7664AD2F8983023F01A
:1010E0000103C2F89830FFF73BFC0546614BD3F88B
:1010F000983013F0020F06D0FFF732FC401B022895
:10110000F4D90320A5E0E369002B00F0A180594A3F
:10111000926802F00C020C2A64D0022B13D0554ABC
:10112000136823F080731360FFF71AFC0446514BD9
:101130001B6813F0007F4ED0FFF712FC001B022843
:10114000F5D9032085E04B4A136823F080731360C0
:10115000FFF706FC0546474B1B6813F0007F06D0DF
:10116000FFF7FEFB401B0228F5D9032071E0414A3E
:10117000D36841491940236A606A013843EA001381
:10118000A06A43EA0023206B4008013843EA405339
:10119000606B4008013843EA4063E06A43EAC06399
:1011A0001943D160136843F080731360D36843F030
:1011B0008073D360FFF7D4FB04462E4B1B6813F0FB
:1011C000007F06D1FFF7CCFB001B0228F5D90320D6
:1011D0003FE000203DE0274AD168284B0B40D36018
:1011E000002036E0012B36D0224BDB6803F00301F0
:1011F000226A914231D103F0F002616A0139B2EB07
:10120000011F2CD103F4FE42A16AB2EB012F28D1B9
:1012100003F07842E16AB2EBC16F24D103F4C0015C
:10122000226B5208013AB1EB425F1ED103F0C0635A
:10123000626B5208013AB3EB426F18D1002008E00C
:1012400001207047012004E0012002E0012000E0BD
:10125000002002B070BD0120FBE70120F9E701206A
:10126000F7E70120F5E70120F3E70120F1E701208E
:10127000EFE700BF001002400C809F01FCFFEEFE74
:101280001E4B9B6803F00C03042B33D01B4B9B6855
:1012900003F00C03082B2FD0184B9B6803F00C03B2
:1012A0000C2B01D000207047144BDA6802F00302C7
:1012B000DB68C3F303130133032A11D01048B0FBDA
:1012C000F3F00E4BDB68C3F3062303FB00F00B4B7C
:1012D000DB68C3F3416301335B00B0FBF3F070479D
:1012E0000848B0FBF3F0054BDB68C3F3062303FBB0
:1012F00000F0ECE7024870470248704700100240D7
:101300000024F40000127A00002800F0E680F8B50E
:101310000C460546744B1B6803F00F038B420BD23F
:10132000714A136823F00F030B431360136803F033
:101330000F038B4240F0D3802E6816F001065FD079
:101340006B68032B2FD0022B4DD0684B1B6813F416
:10135000806F00F0C680FFF793FF654B98424DD930
:10136000624A936823F0F00343F080039360802681
:101370005E4A936823F0030369680B439360FFF7A9
:10138000EFFA0746594B9B6803F00C036A68B3EB0E
:10139000820F35D0FFF7E4FAC01B41F28833984240
:1013A000F0D9032078E0514B1B6813F0007F01D186
:1013B000012071E0FFF7C6FC4D4B98421AD94B4B08
:1013C0009B6813F0F00F05D02E6816F00206CFD000
:1013D000AB688BB9454A936823F0F00343F0800370
:1013E00093608026C4E7414B1B6813F4003FB2D1E1
:1013F000012051E00026BBE70026B9E70026B7E749
:101400002B6813F0020F48D013F0040F04D0374AB2
:10141000936843F4E06393602B6813F0080F06D0E1
:10142000324A936823F47C5343F4E06393602F4A79
:10143000936823F0F003A9680B4393602A4B1B6861
:1014400003F00F03A34230D82B6813F0040F06D02B
:10145000264A936823F4E063E9680B4393602B68A2
:1014600013F0080F07D0214A936823F460532969C9
:1014700043EAC1039360FFF703FF1C4B9B68C3F370
:1014800003131C4AD35C03F01F03D8401A4B1860A7
:101490001A4B1868FFF79CF9F8BD802ECED1134A7D
:1014A000936823F0F0039360C8E70F4A136823F0B2
:1014B0000F0323431360FFF753FA06460A4B1B68DA
:1014C00003F00F03A342BFD0FFF74AFA801B41F29B
:1014D00088339842F2D90320DEE7012070470120CB
:1014E000DAE70120D8E700BF0020024000100240E8
:1014F00000B4C4045C3A000800000020080000208A
:10150000014B1868704700BF0000002008B5FFF7C6
:10151000F7FF054B9B68C3F30223044AD35C03F037
:101520001F03D84008BD00BF00100240543A000815
:101530000F2303600B4B9A6802F0030242609A6823
:1015400002F0F00282609A6802F4E062C2609B6876
:10155000DB0803F4E0630361034B1B6803F00F0334
:101560000B607047001002400020024070470000EE
:1015700090F83D30DBB2012B3AD1022380F83D30A8
:101580000268D36843F00103D36003681B4A9342A7
:1015900020D0B3F1804F1DD0A2F59432934219D0E0
:1015A00002F58062934215D002F58062934211D019
:1015B00002F5943293420DD002F54062934209D075
:1015C00002F58052934205D01A6842F001021A6077
:1015D0000020704799680A4A0A40062A0AD0B2F5E4
:1015E000803F09D01A6842F001021A60002070475B
:1015F000012070470020704700207047002C0140F8
:1016000007000100704770477047704770B5054686
:101610000368DE681C6914F0020F10D016F0020F88
:101620000DD06FF002021A610123037703689B69F2
:1016300013F0030F7CD0FFF7E6FF00232B7714F0A5
:10164000040F12D016F0040F0FD02B686FF00402B5
:101650001A6102232B772B689B6913F4407F6DD0AE
:101660002846FFF7D0FF00232B7714F0080F12D085
:1016700016F0080F0FD02B686FF008021A610423D0
:101680002B772B68DB6913F0030F5ED02846FFF73A
:10169000BAFF00232B7714F0100F12D016F0100FA2
:1016A0000FD02B686FF010021A6108232B772B687C
:1016B000DB6913F4407F4FD02846FFF7A4FF0023D7
:1016C0002B7714F0010F02D016F0010F4BD114F458
:1016D000025F02D016F0800F4DD114F4807F02D04B
:1016E00016F0800F4FD114F0400F02D016F0400FCB
:1016F00051D114F0200F02D016F0200F53D114F462
:10170000801F02D016F4801F55D114F4001F02D0A0
:1017100016F4001F57D114F4800F02D016F4800F76
:1017200059D114F4000F02D016F4000F5BD170BD34
:10173000FFF768FF2846FFF767FF7EE72846FFF7B9
:1017400061FF2846FFF760FF8DE72846FFF75AFF45
:101750002846FFF759FF9CE72846FFF753FF284626
:10176000FFF752FFABE72B686FF001021A612846C2
:10177000FEF752FFABE72B686FF402521A6128465E
:1017800000F0E3F8A9E72B686FF480721A6128462D
:1017900000F0DCF8A7E72B686FF040021A612846DA
:1017A000FFF733FFA5E72B686FF020021A61284688
:1017B00000F0CAF8A3E72B686FF480121A6128467C
:1017C00000F0C5F8A1E72B686FF400121A612846F3
:1017D00000F0BEF89FE72B686FF480021A6128467C
:1017E00000F0B7F89DE72B686FF400021A612846F5
:1017F00000F0B0F89BE7000003683A4A904216D028
:10180000B0F1804F13D0A2F5943290420FD002F580
:10181000806290420BD002F58062904207D002F5C0
:101820009432904203D002F5E052904203D123F06B
:1018300070034A6813432B4A904222D0B0F1804F84
:101840001FD0A2F5943290421BD002F580629042E4
:1018500017D002F58062904213D002F59432904284
:101860000FD002F5406290420BD002F580629042A8
:1018700007D002F58062904203D002F500629042E8
:1018800003D123F44073CA68134323F080034A69E9
:10189000134303608B68C3620B688362114B9842E9
:1018A00013D003F5006398420FD003F540639842CC
:1018B0000BD003F58063984207D003F5806398420C
:1018C00003D003F50063984201D10B690363012340
:1018D0004361036913F0010F03D0036923F001038F
:1018E00003617047002C014060B310B5044690F8C6
:1018F0003D3013B3022384F83D30214651F8040BE8
:10190000FFF77AFF012384F8483084F83E3084F8EA
:101910003F3084F8403084F8413084F8423084F815
:10192000433084F8443084F8453084F8463084F8F5
:10193000473084F83D30002010BD80F83C30FFF780
:1019400015FED7E701207047704770477047704712
:10195000704770477047842801D0033070470020DB
:101960007047EFF30580003818BF0120704708B5B5
:1019700001F0D6F9002008BDF0B585B00C464568E9
:1019800006680769B0F90800FFF7E5FF03AB0193AC
:1019900000902346BAB23146284601F08FF901285B
:1019A00002D1039805B0F0BD0020FBE708B500B9EF
:1019B000012001F00BFB002008BD10B5012902D069
:1019C0000024204610BD03220021012000F0A2FCCB
:1019D00004460028F5D000231A46194600F0BBFC47
:1019E000EFE708B500224168006800F093FC08BDED
:1019F00030B585B00446019100230393154602B922
:101A00000125FFF7AEFFA8B1002303AA01A92046D4
:101A100000F065FD012818D1039BC3B14FF0E0230E
:101A20004FF08052C3F8042DBFF34F8FBFF36F8F79
:101A3000002008E000232A4601A9204600F08BFC84
:101A4000012806D1002005B030BDFF20FBE70020B3
:101A5000F9E7FF20F7E770B584B004460291002350
:101A60000193E1B10D46164600230393FFF779FF7A
:101A700000B303AA01A9284600F01AFF012816D0D6
:101A800000230093039BFBB14FF0E0234FF0805203
:101A9000C3F8042DBFF34F8FBFF36F8F14E0802383
:101AA00000936B4693E8070084E8070011E01023D9
:101AB0000093E7E7324601A9284600F077FD0128A8
:101AC0000AD006B1402600966B4693E8070084E8EA
:101AD0000700204604B070BD10230093F4E700F126
:101AE000080343604FF0FF328260C360036100234C
:101AF0000360704700230361704743684B609A6836
:101B00008A6051609960086103680133036070471F
:101B100030B40D68B5F1FF3F11D000F108031C4649
:101B20005B681A68AA42FAD963684B6099608C6056
:101B30006160086103680133036030BC7047046969
:101B4000F2E70369416882688A60416851605A68B7
:101B5000824206D0002202611A68013A1A601868AF
:101B6000704782685A60F5E782B0002301930D4BFD
:101B70001B68B3F1FF3F08D04FF0500383F3118887
:101B8000BFF36F8FBFF34F8FFEE74FF0500383F328
:101B90001188BFF36F8FBFF34F8F019B002BFCD0D9
:101BA00002B070470C00002008480068006880F30D
:101BB00008884FF0000080F3148862B661B6BFF366
:101BC0004F8FBFF36F8F00DF00BF000008ED00E014
:101BD000DFF80C00016841F47001016070470000FB
:101BE00088ED00E04FF0807340F8043C21F00101E3
:101BF00040F8081C054B40F80C3C40F8202C6FF0D6
:101C0000020340F8243C4438704700BF691B0008B9
:101C1000074B19680868B0E8F04F80F30988BFF3F4
:101C20006F8F4FF0000080F311887047AFF3008092
:101C3000281700204FF0500383F31188BFF36F8FF4
:101C4000BFF34F8F0B4A136801331360012B00D091
:101C500070474FF0E023D3F8043D13F0FF0FF7D0A7
:101C60004FF0500383F31188BFF36F8FBFF34F8F93
:101C7000FEE700BF0C000020094B1B6843B94FF082
:101C8000500383F31188BFF36F8FBFF34F8FFEE7CD
:101C9000013B034A13600BB983F31188704700BFFF
:101CA0000C00002000000000000000000000000008
:101CB000EFF30980BFF36F8F154B1A681EF0100FFA
:101CC00008BF20ED108A20E9F04F10602DE90900CF
:101CD0004FF0500080F31188BFF34F8FBFF36F8F29
:101CE00001F09AF94FF0000080F3118809BC1968DF
:101CF0000868B0E8F04F1EF0100F08BFB0EC108A73
:101D000080F30988BFF36F8F704700BFAFF3008087
:101D10002817002008B54FF0500383F31188BFF354
:101D20006F8FBFF34F8F01F049F828B14FF0E023D8
:101D30004FF08052C3F8042D002383F3118808BDAF
:101D40004FF0E022002313619361054B1B680549A6
:101D5000A1FB03139B09013B5361072313617047E8
:101D600000000020D34D62104FF0E023D3F8002D87
:101D70003D4B9A421CD04FF0E023D3F8002D3B4B53
:101D80009A421ED030B583B0394B1A78D2B2019244
:101D9000FF221A701B78DBB28DF803309DF80330F8
:101DA00003F05003334A1370334B07221A601BE0D1
:101DB0004FF0500383F31188BFF36F8FBFF34F8F42
:101DC000FEE74FF0500383F31188BFF36F8FBFF32B
:101DD0004F8FFEE7284A1368013B13609DF80330DC
:101DE0005B00DBB28DF803309DF8033013F0800FF9
:101DF000F0D1214B1B68032B08D04FF0500383F325
:101E00001188BFF36F8FBFF34F8FFEE71B021A4A93
:101E1000136003F4E0631360019BDBB2144A137098
:101E20004FF0E024D4F8203D43F47003C4F8203D83
:101E3000D4F8203D43F07043C4F8203DFFF780FF05
:101E400000250E4B1D60FFF7C3FED4F8343F43F06E
:101E50004043C4F8343FFFF7A7FE01F0DDF8FFF779
:101E600083FE284603B030BD71C20F4170C20F41DE
:101E700000E400E0DC050020D80500200C00002074
:101E8000EFF305830F2B0FD9114A9B5CDBB2114A8C
:101E900012789A4208D94FF0500383F31188BFF3A8
:101EA0006F8FBFF34F8FFEE74FF0E023D3F80C3D69
:101EB00003F4E063084A1268934208D94FF05003D4
:101EC00083F31188BFF36F8FBFF34F8FFEE7704727
:101ED000F0E300E0DC050020D8050020124A12F0F3
:101EE000070F1ED0D11D21F00701C1F58053134407
:101EF0000A460E480260002141601344083B23F06B
:101F000007030B48036059601960991A5160136008
:101F1000084B1960084B1960084B4FF000421A60DB
:101F200070474FF48053E4E700060020F8050020D6
:101F3000F4050020EC050020F0050020E00500205D
:101F4000164B1A461B688342FBD3516802EB010C07
:101F5000844509D0416800EB010C634509D003605A
:101F6000904219D01060704740680144516010469B
:101F7000F0E710B40A4C2468A3420BD05B68194404
:101F8000416013681B680360904200D010605DF8E8
:101F9000044B70470460F7E7704700BFF805002066
:101FA000F405002038B5044600F000FF384B1B68EC
:101FB000B3B1384B1B681C4250D1002C50D004F1F7
:101FC000080214F0070F02D022F007020832002A9C
:101FD00055D0314B1B68934253D330490C6804E011
:101FE000FFF77CFFE5E721461C466368934202D277
:101FF0002368002BF7D1264B1B68A34243D00D6802
:10200000083523680B6063689B1A102B10D9A01841
:1020100010F0070F08D04FF0500383F31188BFF37F
:102020006F8FBFF34F8FFEE743606260FFF788FF5B
:10203000626819490B689B1A0B60194909688B4241
:1020400001D217490B60134B1B68134363600023D5
:102050002360144A13680133136002E0002500E096
:10206000002500F037FF15F0070F0ED04FF050039A
:1020700083F31188BFF36F8FBFF34F8FFEE7002507
:10208000EFE70025EDE70025EBE7284638BD00BF68
:10209000F4050020E0050020F0050020F8050020F0
:1020A000EC050020E8050020002834D038B50446AF
:1020B000A0F1080550F8043C174A1268134208D1F1
:1020C0004FF0500383F31188BFF36F8FBFF34F8F2F
:1020D000FEE750F8081C41B14FF0500383F311881C
:1020E000BFF36F8FBFF34F8FFEE723EA020340F881
:1020F000043C00F05BFE54F8041C084A13680B44CF
:1021000013602846FFF71CFF054A1368013313606C
:1021100000F0E0FE38BD7047E0050020F00500202B
:10212000E40500200346406A18B11B6B1868C0F133
:102130000700704710B50446FFF77CFDA26BE36B08
:102140009A4204D00024FFF797FD204610BD0124D9
:10215000F9E710B50446FFF76DFDA36B23B9012421
:10216000FFF78AFD204610BD0024F9E770B504464C
:102170001546866B026C5AB903681BB10020013604
:10218000A66370BD806801F0B1F80023A360F6E794
:102190006DB94068FEF724F86368226C13446360ED
:1021A000A268934219D3236863602846E7E7C068B2
:1021B000FEF716F8E368226C51429B1AE36022682E
:1021C000934202D2A3680B44E360022D01D00020A9
:1021D000D5E726B1013E0020D1E72846CFE7002011
:1021E000CDE70346026C6AB110B50846D9681144C0
:1021F000D9609C68A14201D31968D960D968FDF7FC
:10220000EFFF10BD704738B50546FFF713FD95F891
:10221000454064B201E0013C64B2002C0ADD6B6A07
:1022200043B105F1240000F061FF0028F3D000F075
:10223000F1FFF0E7FF2385F84530FFF71DFDFFF7BD
:10224000F9FC95F8444064B201E0013C64B2002C12
:102250000ADD2B6943B105F1100000F047FF0028AB
:10226000F3D000F0D7FFF0E7FF2385F84430FFF705
:1022700003FD38BD38B5E0B10D460446FFF7DAFC82
:102280002368E26B216C01FB0230A0600020A06398
:102290006360013A02FB0133E360FF2384F84430BA
:1022A00084F84530FDB9236963B9FFF7E5FC0120E7
:1022B00038BD4FF0500383F31188BFF36F8FBFF326
:1022C0004F8FFEE704F1100000F010FF0028ECD063
:1022D0004FF0E0234FF08052C3F8042DBFF34F8F2F
:1022E000BFF36F8FE1E704F11000FFF7F8FB04F193
:1022F0002400FFF7F4FBD8E710B5034602980C461C
:1023000031B90060C36304640121FFF7B3FF10BD5E
:102310000260F7E740B94FF0500383F31188BFF331
:102320006F8FBFF34F8FFEE7F0B583B00C461546B5
:10233000064601FB00F04830FFF734FE074638B18F
:1023400000902B4600F1480221463046FFF7D4FFAB
:10235000384603B0F0BDF0B585B0019288B10F46A4
:102360001D460446B1B1022D20D1E36B012B1DD0D7
:102370004FF0500383F31188BFF36F8FBFF34F8F7C
:10238000FEE74FF0500383F31188BFF36F8FBFF365
:102390004F8FFEE7036C002BE5D04FF0500383F323
:1023A0001188BFF36F8FBFF34F8FFEE700F038FF48
:1023B000064658B9019B002B48D04FF0500383F3D9
:1023C0001188BFF36F8FBFF34F8FFEE700263DE00C
:1023D0002A4639462046FFF7C9FE636A7BB948B1F1
:1023E0004FF0E0234FF08052C3F8042DBFF34F8F1E
:1023F000BFF36F8FFFF740FC012005B0F0BD04F183
:10240000240000F073FE0028F4D04FF0E0234FF0DA
:102410008052C3F8042DBFF34F8FBFF36F8FE9E7EE
:10242000FFF72AFC0020E8E702A800F0A5FE01263D
:1024300019E0002384F8443021E0002384F845307B
:1024400023E02046FFF7DFFE00F044FDFFF7F2FB3C
:10245000A26BE36B9A42BBD3022DB9D0019B002B38
:10246000DED0002EE0D0FFF707FC00F09FFCFFF766
:10247000E1FB94F8442052B2B2F1FF3FD9D094F876
:10248000452052B2B2F1FF3FD7D0FFF7F5FB01A9CB
:1024900002A800F07DFED8B92046FFF74BFE0028C9
:1024A000CFD0019904F1100000F008FE2046FFF79C
:1024B000AAFE00F00FFD0028C8D14FF0E0234FF036
:1024C0008052C3F8042DBFF34F8FBFF36F8FBDE76A
:1024D0002046FFF798FE00F0FDFC00208DE72DE977
:1024E000F84390B10F4616461C460546B1B1022C82
:1024F00020D1EB6B012B1DD04FF0500383F31188DB
:10250000BFF36F8FBFF34F8FFEE74FF0500383F39E
:102510001188BFF36F8FBFF34F8FFEE7036C002B63
:10252000E5D04FF0500383F31188BFF36F8FBFF3F3
:102530004F8FFEE7FFF7A4FCEFF311884FF0500335
:1025400083F31188BFF36F8FBFF34F8FAA6BEB6BD1
:102550009A4206D3022C04D0002088F31188BDE8EB
:10256000F88395F845904FFA89F9AB6B22463946C6
:102570002846FFF7FBFDB9F1FF3F06D009F1010343
:102580005BB285F845300120E7E76B6A0BB90120A3
:10259000E3E705F1240000F0A9FD18B126B1012000
:1025A0003060DAE70120D8E70120D6E7F0B585B042
:1025B000019290B10F460446C1B100F031FE0646CB
:1025C00000BB019B002B5ED04FF0500383F31188BA
:1025D000BFF36F8FBFF34F8FFEE74FF0500383F3CE
:1025E0001188BFF36F8FBFF34F8FFEE7036C002B93
:1025F000E3D04FF0500383F31188BFF36F8FBFF325
:102600004F8FFEE700263EE039462046FFF7E9FD02
:10261000013DA563236923B9FFF72EFB012005B017
:10262000F0BD04F1100000F061FD0028F4D04FF07F
:10263000E0234FF08052C3F8042DBFF34F8FBFF358
:102640006F8FE9E7FFF718FB0020E8E702A800F02A
:1026500093FD012621E0002384F8443029E0002383
:1026600084F845302BE02046FFF7CDFD00F032FC2A
:1026700009E02046FFF7C7FD00F02CFC2046FFF7DD
:1026800068FD00283FD1FFF7D5FAA56B002DBBD11F
:10269000019B002BD6D0002ED8D0FFF7EDFA00F02A
:1026A00085FBFFF7C7FA94F844305BB2B3F1FF3F04
:1026B000D1D094F845305BB2B3F1FF3FCFD0FFF7F4
:1026C000DBFA01A902A800F063FD0028D1D1204661
:1026D000FFF73FFD0028C6D0019904F1240000F067
:1026E000EDFC2046FFF78FFD00F0F4FB0028CAD177
:1026F0004FF0E0234FF08052C3F8042DBFF34F8F0B
:10270000BFF36F8FBFE7002089E770B584B00191F8
:1027100058B10446036C8BB14FF0500383F311881A
:10272000BFF36F8FBFF34F8FFEE74FF0500383F37C
:102730001188BFF36F8FBFF34F8FFEE700F070FD7E
:10274000054650B9019B5BB14FF0500383F31188EC
:10275000BFF36F8FBFF34F8FFEE70026354655E07E
:10276000064653E0013BA36323683BB123694BB9A1
:10277000FFF782FA0126304604B070BD00F068FE13
:10278000A060F3E704F1100000F0B0FC0028EFD0E7
:102790004FF0E0234FF08052C3F8042DBFF34F8F6A
:1027A000BFF36F8FE4E746B14FF0500383F3118816
:1027B000BFF36F8FBFF34F8FFEE7FFF75DFADAE7E6
:1027C00002A800F0D9FC01252AE0002384F8443057
:1027D00032E0002384F8453034E0FFF72BFAA0689C
:1027E00000F02EFD0646FFF747FA3BE02046FFF7D4
:1027F0000AFD00F06FFB09E02046FFF704FD00F042
:1028000069FB2046FFF7A5FC002842D1FFF712FA2A
:10281000A36B002BA6D1019B002BC4D0002DCFD0E1
:10282000FFF72AFA00F0C2FAFFF704FA94F84430EE
:102830005BB2B3F1FF3FC8D094F845305BB2B3F15F
:10284000FF3FC6D0FFF718FA01A902A800F0A0FCCC
:102850000028D1D12046FFF77CFC0028C6D0236891
:10286000002BBAD0019904F1240000F027FC204687
:10287000FFF7C9FC00F02EFB0028C7D14FF0E02382
:102880004FF08052C3F8042DBFF34F8FBFF36F8F0B
:10289000BCE70EB900266EE7FFF7CCF92046FFF73C
:1028A00041FC0146A06800F079FDFFF7E5F9F1E78A
:1028B0002DE9F843B0B10D4690460446D9B1FFF773
:1028C000DFFAEFF311874FF0500383F31188BFF362
:1028D0006F8FBFF34F8FA66BCEB9002087F311889F
:1028E000BDE8F8834FF0500383F31188BFF36F8F77
:1028F000BFF34F8FFEE7036C002BE0D04FF0500387
:1029000083F31188BFF36F8FBFF34F8FFEE794F807
:1029100044904FFA89F929462046FFF762FC731E5E
:10292000A363B9F1FF3F06D009F101035BB284F85C
:1029300044300120D2E723690BB90120CEE704F12E
:10294000100000F0D3FB30B1B8F1000F05D001202A
:10295000C8F80000C2E70120C0E70120BEE7000080
:10296000084B1B681B6823B9074B4FF0FF321A60F6
:102970007047044B1B68DB68DB685A68024B1A60BF
:10298000704700BF70160020081600202DE9F047A0
:1029900007469846089DDDF824900A9C266B02F1B4
:1029A0008042013A06EB820626F00706002964D031
:1029B00008464FF0000CBCF10F0F09D810F80C209E
:1029C00004EB0C0383F8342012B10CF1010CF2E794
:1029D000002384F84330062D00D90625E56265649E
:1029E0004FF0000AC4F848A0201DFFF783F804F157
:1029F0001800FFF77FF82461C5F10705A56164623F
:102A0000C4F870A184F874A14FF49072514604F197
:102A1000500000F02BFD1B4B636503F16802A265BB
:102A2000D033E36501220023C4E93A2343F20E3395
:102A3000A4F8F0304AF6CD33A4F8F23041F2342352
:102A4000A4F8F4304EF26D63A4F8F6304DF6EC6362
:102A5000A4F8F8300523A4F8FA300B23A4F8FC30CE
:102A6000424639463046FFF7BDF82060B9F1000F05
:102A700001D0C9F80040BDE8F087002384F8343065
:102A8000A9E700BF2C17002038B5002407E004EBAD
:102A9000840293000E481844FFF721F80134062CF5
:102AA000F5D90C4D2846FFF71AF80B4C2046FFF7D6
:102AB00016F80A48FFF713F80948FFF710F8094815
:102AC000FFF70DF8084B1D60084B1C6038BD00BFB8
:102AD0009C1600208816002074160020581600202E
:102AE000441600202C160020701600206C160020C2
:102AF00010B50446FFF79EF8214A136801331360AE
:102B0000204B1B685BB1204B1B686BB91D4B1B68CE
:102B1000DA6AE36A9A4207D81A4B1C6004E0194B40
:102B20001C601368012B28D0184A13680133136006
:102B3000E06A01238340164A11680B43136000EBDF
:102B40008000211D134B03EB8000FEF7D6FFFFF73B
:102B500093F80D4B1B687BB10A4B1B68DA6AE36A7A
:102B60009A4209D24FF0E0234FF08052C3F8042D6F
:102B7000BFF34F8FBFF36F8F10BDFFF785FFD3E714
:102B800028160020281700201C1600200C160020F4
:102B9000201600209C16002010B50446503000F08E
:102BA000B7FC206BFFF780FA2046FFF77DFA10BDD7
:102BB0000F4B1B68D3B110B5FFF73CF80D4BDB682A
:102BC000DC68201DFEF7BDFF0B4A1368013B136054
:102BD000074A1368013B1360FFF74EF82046FFF7E2
:102BE000DBFF034B1B68002BE6D110BD704700BF15
:102BF00040160020441600202816002008B5FFF7D4
:102C0000D7FF074B1B68012BF9D94FF0E0234FF09A
:102C10008052C3F8042DBFF34F8FBFF36F8FEEE7E1
:102C20009C16002070B504460D461D4B1E681D4BBA
:102C300018680430FEF785FF48B91A4B1B68DB6A39
:102C400001229A4018490B6823EA02030B60B4F191
:102C5000FF3F0DD03444134B1B685C60A64210D973
:102C6000124B18680F4B19680431FEF751FF70BD05
:102C7000002DEFD00B4B196804310D48FEF73DFFD6
:102C8000F5E70C4B1868074B19680431FEF740FF55
:102C9000094B1B68A342EAD9074B1C60E7E700BF5A
:102CA0002416002028170020201600206C16002073
:102CB0002C16002070160020081600202DE9F04385
:102CC00085B007460E4614461D469000FFF76AF988
:102CD00000B381464FF4BC70FFF764F9804698B1A9
:102CE000C0F830900023039302900D9B01930C9B3E
:102CF00000932B46224631463846FFF747FE4046B2
:102D0000FFF7F6FE012007E04846FFF7CDF94FF048
:102D1000FF3001E04FF0FF3005B0BDE8F083000068
:102D200000B583B0194B019300230093802218490A
:102D30001848FFF7C3FF012805D0B0F1FF3F1CD0B2
:102D400003B05DF804FB4FF0500383F31188BFF329
:102D50006F8FBFF34F8F104B1B6850330F4A1360B8
:102D60000F4B4FF0FF321A600E4B01221A600E4BD0
:102D700000221A60FEF7F8FFE2E74FF0500383F3FA
:102D80001188BFF36F8FBFF34F8FFEE7041600204B
:102D90004C3A0008FD2B00082817002010000020E6
:102DA000081600201C16002024160020024A136872
:102DB00001331360704700BF00160020F8B53A4B8E
:102DC0001B68002B69D1394B1D6801351D60C5B9E1
:102DD000374B1B681B6843B14FF0500383F31188D6
:102DE000BFF36F8FBFF34F8FFEE7314A1168314B4E
:102DF000186810601960304A136801331360FFF7D8
:102E0000AFFD2E4B1B68AB423DD900272C4B1B68F6
:102E1000DB6A03EB83039A002A4B9B58012B00D9F2
:102E20000127294B1B68002B3CD001273AE00127E2
:102E30001F4B1B681B6843B31D4B1B68DB68DC68BA
:102E400063689D4226D3261D3046FEF77AFEA36AAC
:102E50001BB104F11800FEF774FEE36A01229A40E8
:102E60001A49086802430A6003EB83039A0031465B
:102E700014481044FEF741FEE26A114B1B68DB6AFE
:102E80009A42D4D2D4E70027D2E70C4B4FF0FF325E
:102E90001A60BBE7094A1360B8E70D4A13680133AB
:102EA000136000273846F8BD0016002024160020C5
:102EB000701600206C160020101600200816002046
:102EC000281700209C160020141600202016002031
:102ED0001816002038B5354B1B6843B94FF0500326
:102EE00083F31188BFF36F8FBFF34F8FFEE7FEF7B9
:102EF000A1FE2E4B1A68013A1A601B68002B4FD1B5
:102F00002B4B1B680BB900244BE00024294B1B689A
:102F10001BB3284BDB68DC6804F11800FEF711FED8
:102F2000251D2846FEF70DFEE06A01238340224A54
:102F300011680B43136000EB800029461F4B03EB25
:102F40008000FEF7DAFDE26A1D4B1B68DB6A9A42DD
:102F5000DCD31C4B01221A60D8E70CB1FFF700FD4F
:102F6000194B1C6884B9174B1C68D4B14FF0E0238F
:102F70004FF08052C3F8042DBFF34F8FBFF36F8F14
:102F800001240EE0013C07D0FFF718FF0028F9D01C
:102F90000C4B01221A60F5E70B4B00221A60E2E7A6
:102FA0000024FEF769FE204638BD00BF0016002051
:102FB0002816002058160020201600209C160020FD
:102FC00028170020141600201816002010B5A8B1EC
:102FD0000446104B1B6843B14FF0500383F3118834
:102FE000BFF36F8FBFF34F8FFEE7FFF7DFFE0021C8
:102FF0002046FFF717FEFFF76DFF48B94FF0E023BB
:103000004FF08052C3F8042DBFF34F8FBFF36F8F83
:1030100010BD00BF00160020224B1B681BB1224BC5
:1030200001221A607047204B00221A601F4B1B6858
:10303000B3FA83F3DBB2C3F11F0303EB83018A000E
:103040001B498A5842B94FF0500383F31188BFF3EC
:103050006F8FBFF34F8FFEE7154803EB83018A00A4
:10306000024451684968516003EB830C4FEA8C02BB
:103070000832024491420DD003EB83039A000C4BBB
:1030800013445B68DA680B4B1A601B6850330A4ABA
:1030900013607047486862469100054A0A445060D0
:1030A000EAE700BF001600201416002020160020BA
:1030B0009C160020281700201000002058B110B5E1
:1030C0000C46094A11681831FEF722FD01212046FD
:1030D000FFF7A8FD10BD4FF0500383F31188BFF335
:1030E0006F8FBFF34F8FFEE72817002038B5C368F6
:1030F000DC6824B304F118052846FEF722FD184BBE
:103100001B682BBB251D2846FEF71BFDE06A01232B
:103110008340144A11680B43136000EB800029467A
:10312000114B03EB8000FEF7E8FCE26A0F4B1B68D3
:10313000DB6A9A4211D901200D4B186038BD4FF05F
:10314000500383F31188BFF36F8FBFF34F8FFEE7F8
:1031500029460848FEF7D1FCE7E70020EEE700BF6C
:1031600000160020201600209C16002028170020A2
:103170001416002058160020034B1B680360034BF5
:103180001B684360704700BF101600202416002003
:10319000F8B5C8B10C460546F9B1FEF74BFD1B4B1F
:1031A00019686B68C81A2268B2F1FF3F26D0184E22
:1031B00036682F68B74201D08B4224D9824215D895
:1031C0000023236001241AE04FF0500383F3118899
:1031D000BFF36F8FBFF34F8FFEE74FF0500383F3C2
:1031E0001188BFF36F8FBFF34F8FFEE75B1A134455
:1031F00023602846FFF7C0FF002400E00024FEF70C
:103200003BFD2046F8BD0124F9E700BF241600204D
:1032100010160020014B01221A607047141600207E
:10322000054B1B6833B1054B1B680BB10020704781
:1032300002207047012070471C1600200016002055
:10324000002848D038B50446C36A254A1268D26AB5
:10325000934238D28269002A05DB214A1268D26A79
:10326000C2F107028261616903EB83031D4A02EB2D
:103270008303994205D01A4B1B68DB6AE362012085
:1032800038BD251D2846FEF75CFC38B9E36A0122EB
:103290009A4015490B6823EA02030B60104B1B6828
:1032A000D86AE062012404FA00F30F4A11680B4364
:1032B000136000EB800029460A4B03EB8000FEF709
:1032C0001CFC2046DCE7426C054B1B68DB6A9A421B
:1032D00003D30020D4E7002070470120D0E700BFCF
:1032E000281700209C1600202016002000284BD014
:1032F00038B50446264B1B68834208D04FF0500374
:1033000083F31188BFF36F8FBFF34F8FFEE7836C9A
:1033100043B94FF0500383F31188BFF36F8FBFF3AE
:103320004F8FFEE7013B8364C16A426C91422DD00E
:103330000BB1002038BD051D2846FEF702FC68B918
:10334000E36A03EB8302920012498A5832B90122E0
:103350009A4011490B6823EA02030B60606CE0623B
:10336000C0F10703A361012404FA00F30A4A1168BB
:103370000B43136000EB80002946064B03EB8000F3
:10338000FEF7BBFB2046D5E7002070470020D1E7C1
:10339000281700209C1600202016002000284FD05F
:1033A00038B50446836C43B94FF0500383F311885A
:1033B000BFF36F8FBFF34F8FFEE7426C8A4200D29C
:1033C0000A46E16A914201D0012B00D038BD1D4B65
:1033D0001B68A3422BD0E262A369002B02DBC2F17F
:1033E0000702A261626901EB8101174B03EB8103C4
:1033F0009A42EBD1251D2846FEF7A3FB38B9E36AB4
:1034000001229A4011490B6823EA02030B60E06A2B
:10341000012383400D4A11680B43136000EB8000C9
:103420002946094B03EB8000FEF767FBCEE74FF020
:10343000500383F31188BFF36F8FBFF34F8FFEE705
:10344000704700BF281700209C160020201600207F
:10345000054B1B6823B1044B1A68936C01339364CA
:10346000014B1868704700BF28170020830730B54C
:1034700047D0541E002A3ED0CAB2034601E0013CA8
:1034800039D303F8012B9D07F9D1032C2CD9CDB2E8
:1034900005EB05250F2C05EB054535D9A4F11002E8
:1034A00022F00F0C03F1100EE6444FEA121C1A46EC
:1034B000C2E90055C2E9025510327245F8D10CF14B
:1034C000010214F00C0F03EB021204F00F0C13D0E6
:1034D000ACF1040323F003030433134442F8045B08
:1034E0009342FBD10CF003042CB1C9B21C4403F885
:1034F000011BA342FBD130BD64461346002CF4D11E
:10350000F9E703461446C0E71A46A446E0E700BFC1
:10351000154B1B68834225D0416C70B5054681B1BF
:1035200000268C593CB121462468284600F0BCF89E
:10353000002CF8D1696C0436802EF2D1284600F0B8
:10354000B3F8A96B11B1284600F0AEF8E96C11B1DF
:10355000284600F0A9F86B6B1BB12846BDE8704007
:10356000184770BD704700BF10000020014B18685D
:10357000704700BF1000002070B50F4B0F4DAB42DD
:10358000A3EB050607D0B610002455F8043B013420
:103590009847A642F9D800F003FA094D094B5E1B83
:1035A000AB424FEAA60606D0002455F8043B01348E
:1035B0009847A642F9D870BD743A0008743A0008DA
:1035C000743A00087C3A0008704700BF704700BF9B
:1035D000024B13B1024800F005B87047000000002C
:1035E000DD380008002301461A46184600F098B955
:1035F0002DE9F84306460820894600F083F9DFF8F4
:10360000A4800546304600F04BF9D8F808305F68D2
:1036100027F00307A7F11104A4EB09042C44B4FB21
:10362000F5F4013C05FB04F4A54208DC002130461A
:1036300000F042F9D8F808303B44984205D03046B3
:1036400000F034F90020BDE8F8836142304600F014
:1036500033F901300FD0114AD8F808303F1B47F03A
:1036600001075F60136830461B1B136000F01EF9F2
:103670000120BDE8F8830021304600F01DF9D8F89C
:103680000820831A0F2BDADD43F001035360044B4B
:1036900002491B68C01A0860D1E700BF74180020F7
:1036A0003C0100204801002000297CD02DE9F04198
:1036B0000C46804600F0F4F854F8043C754FA4F131
:1036C000080523F001016818BE684268864222F0AE
:1036D000030200F08380DE07426000EB020C33D46B
:1036E00054F8084CDCF804302D1B2144AC6807F179
:1036F000080C644503F0010364D0D5F80CE0C4F86D
:103700000CE0CEF80840002B00F0818041F001036E
:103710006B600160B1F5007F22D27868CB0801228E
:10372000490901338A40024357F833107A6007EBA6
:10373000C302083AC5E9021247F83350CD6040464B
:10374000BDE8F04100F0B2B8DCF80430DB072BD55F
:1037500041F00103B1F5007F44F8043C0160DCD383
:10376000B1F5206F4FEA512353D28B0903F1390091
:1037700003F13802C300F818FB580838984203D107
:1037800061E09B68984204D05A6822F003028A42A2
:10379000F7D8D868C5E902308560DD604046BDE8ED
:1037A000F04100F083B87047114407F1080C8368BA
:1037B00063453FD0C268DA60936041F001036B60FB
:1037C0006950A7E7002B5FD10A44D0E90213CB6010
:1037D000996042F001036B60AA50B0E7DB070A442E
:1037E00007D454F8083CED1A1A44D5E90213CB600B
:1037F000996042F001036B60274BBD601B689342E8
:103800009DD8264B40461968FFF7F2FE97E7114412
:10381000CDE7142B08D9542B1DD80B0B03F16F00E7
:1038200003F16E02C300A6E703F15C0003F15B0243
:10383000C300A0E741F00103C7E90455C5E902CC84
:103840006B6069507BE779689210012404FA02F2F8
:103850000A437A609EE7B3F5AA7F06D8CB0B03F143
:10386000780003F17702C30085E740F25452934297
:1038700006D88B0C03F17D0003F17C02C3007AE7CC
:103880004FF47E737E2276E741F001036B600160A6
:1038900055E700BF48010020400100209C1800208F
:1038A0000148FFF791BE00BF681800200148FFF7EC
:1038B0008DBE00BF6818002038B5074D00220446B1
:1038C00008462A60FCF7DAFF431C00D038BD2B689D
:1038D000002BFBD0236038BD6418002038B5074D9D
:1038E000074C2C1BA41005D0013C55F8043D98470B
:1038F000002CF9D1BDE8384000F058B8803A0008F3
:103900007C3A0008082802D14FF48050704708B56F
:10391000FFF72CFE162303604FF0FF3008BD00BFF9
:103920002DE9F8431B4D0646286898460F469146F8
:10393000FFF74AFE184B1C681CB3286865681F2DEA
:1039400022DC4EB96B1C0235636044F82570FFF72A
:103950003DFE0020BDE8F88304EB85010123C1F89A
:103960008890D4F88821AB401A43022EC4F88821ED
:10397000C1F80881E6D1D4F88C211A43C4F88C210F
:10398000E0E7064C1C60D8E7FFF720FE4FF0FF3061
:10399000E0E700BF3801002070180020A0180020C8
:1039A000F8B500BFF8BC08BC9E467047F8B500BF2C
:0839B000F8BC08BC9E467047FC
:1039B8001000000002000000403A00085D04000802
:1039C800000000000000000080000000303A0008FD
:1039D800ED04000800000000000000008000000066
:1039E800203A000849050008000000000000000017
:1039F80080000000103A0008A5050008000000003B
:103A080000000000800000005461736B426C6F631B
:103A18006B42746E000000005461736B52657665EA
:103A280072736542746E00005461736B466F7277EF
:103A380061726442746E000044656661756C74540A
:103A480061736B0049444C45000000000000000011
:103A5800010203040000000000000000010203044A
:043A6800060708093C
:083A6C0074C7FF7F0100000098
:083A7400D13500087D030008B4
:043A7C0055030008E6
:103A80000024F4000100000010000000AAAAAAAA65
:103A90001800002000000000000000002C1700208B
:103AA00094170020FC170020000000000000000018
:103AB0000000000000000000000000000000000006
:103AC00000000000000000000000000000000000F6
:103AD00000000000000000000000000000000000E6
:103AE00000000000000000000000000000000000D6
:103AF00000000000000000000000000000000000C6
:103B000000000000000000000000000000000000B5
:103B100000000000000000000000000000000000A5
:103B20000000000000000000000000000000000095
:103B300001000000000000000E33CDAB34126DE632
:103B4000ECDE05000B00000000000000000000009B
:103B50000000000000000000000000000000000065
:103B60000000000000000000000000000000000055
:103B70000000000000000000000000000000000045
:103B80000000000000000000000000000000000035
:103B90000000000000000000000000000000000025
:103BA0000000000000000000000000000000000015
:103BB00000000000000000006C180020FFFFFFFF65
:103BC00000000200000000000000000000000000F3
:103BD0004801002048010020500100205001002031
:103BE00058010020580100206001002060010020E1
:103BF0006801002068010020700100207001002091
:103C00007801002078010020800100208001002040
:103C100088010020880100209001002090010020F0
:103C20009801002098010020A0010020A0010020A0
:103C3000A8010020A8010020B0010020B001002050
:103C4000B8010020B8010020C0010020C001002000
:103C5000C8010020C8010020D0010020D0010020B0
:103C6000D8010020D8010020E0010020E001002060
:103C7000E8010020E8010020F0010020F001002010
:103C8000F8010020F80100200002002000020020BE
:103C9000080200200802002010020020100200206C
:103CA000180200201802002020020020200200201C
:103CB00028020020280200203002002030020020CC
:103CC000380200203802002040020020400200207C
:103CD000480200204802002050020020500200202C
:103CE00058020020580200206002002060020020DC
:103CF000680200206802002070020020700200208C
:103D0000780200207802002080020020800200203B
:103D100088020020880200209002002090020020EB
:103D20009802002098020020A0020020A00200209B
:103D3000A8020020A8020020B0020020B00200204B
:103D4000B8020020B8020020C0020020C0020020FB
:103D5000C8020020C8020020D0020020D0020020AB
:103D6000D8020020D8020020E0020020E00200205B
:103D7000E8020020E8020020F0020020F00200200B
:103D8000F8020020F80200200003002000030020B9
:103D90000803002008030020100300201003002067
:103DA0001803002018030020200300202003002017
:103DB00028030020280300203003002030030020C7
:103DC0003803002038030020400300204003002077
:103DD0004803002048030020500300205003002027
:103DE00058030020580300206003002060030020D7
:103DF0006803002068030020700300207003002087
:103E00007803002078030020800300208003002036
:103E100088030020880300209003002090030020E6
:103E20009803002098030020A0030020A003002096
:103E3000A8030020A8030020B0030020B003002046
:103E4000B8030020B8030020C0030020C0030020F6
:103E5000C8030020C8030020D0030020D0030020A6
:103E6000D8030020D8030020E0030020E003002056
:103E7000E8030020E8030020F0030020F003002006
:103E8000F8030020F80300200004002000040020B4
:103E90000804002008040020100400201004002062
:103EA0001804002018040020200400202004002012
:103EB00028040020280400203004002030040020C2
:103EC0003804002038040020400400204004002072
:103ED0004804002048040020500400205004002022
:103EE00058040020580400206004002060040020D2
:103EF0006804002068040020700400207004002082
:103F00007804002078040020800400208004002031
:103F100088040020880400209004002090040020E1
:103F20009804002098040020A0040020A004002091
:103F3000A8040020A8040020B0040020B004002041
:103F4000B8040020B8040020C0040020C0040020F1
:103F5000C8040020C8040020D0040020D0040020A1
:103F6000D8040020D8040020E0040020E004002051
:103F7000E8040020E8040020F0040020F004002001
:103F8000F8040020F80400200005002000050020AF
:103F9000080500200805002010050020100500205D
:103FA000180500201805002020050020200500200D
:103FB00028050020280500203005002030050020BD
:103FC000380500203805002040050020400500206D
:04000005080008D90E
:00000001FF
